:020000020000FC
:100000000C943F000C94A2410C947D410C94E2416D
:100010000C943E000C9402420C943E000C94C2419D
:100020000C943E000C943E000C943E000C943E0058
:100030000C943E000C94DE390C940B3A0C943E0068
:100040000C943E000C943E000C943E000C943E0038
:100050000C9422420C943E000C943E000C943E0002
:100060000C943E000C943E000C943E000C943E0018
:100070000C943E000C943E000C943E0018950FEF3B
:100080000DBF00E10EBFA2E3B0E00E94E3520E9468
:10009000DC070E943B520E944E1400E000930107CF
:1000A00000E00093020700E00093030700E00093E4
:1000B000040700270093330700E00093400700E0A7
:1000C00000934107002700930F0700931007009348
:1000D000110700931207009313070093140700936E
:1000E000150700931607009317070093180700934E
:1000F0004B0700934C0700934D0700934E07009366
:100100004F07009350070093510700935207009345
:100110005307009354070E94ED540FE000936C06C0
:1001200000EA00936D0600E000936E06EBE4F7E052
:10013000E0934907F0934A07E0E6F7E0E0935E07B3
:10014000F0935F070E94D5120E943E080E94031898
:100150000E94C8220027009372070E94F6520630C0
:1001600041F40FEF009344070FEFE6E9F0E00E943F
:10017000445300914407002312F40E949E5A78943D
:100180000E94F652093011F40E9424130E94C822E2
:1001900006E006BB0E94BD390E94A3420E949D0753
:1001A0000E9497210E94600B0E94B2320E94B30B02
:1001B0000E947E310E9426020E94D6080E94B70A41
:1001C0000E940F3A0090400710904107011481F0FF
:1001D000009140070093410700902A070094009285
:1001E0003807009030071090380701280092300738
:1001F00000903407109035070124009238070090D2
:100200002A070094009239070090380710903907A8
:10021000012000923807009030071090380701281D
:1002200000923007009034071090340701200092AC
:1002300035070091300700232AF400270093300788
:100240000E94B91E00912A0700230AF4A3CF03B12C
:10025000009502950F70013009F09CCF00E00093EB
:100260006F000E94FD090E94704B90CF0E94905237
:1002700001E00093FF0602E00093000700E0009316
:10028000FB0601E00093FC06EF93FF93E4EDF3E03F
:100290000E94A550FF91EF9100E00093FB060EE055
:1002A0000093FC06EF93FF93E6EEF3E00E94A55067
:1002B000FF91EF91E7E9F0E00E9412530E944A504B
:1002C00000E00093FB0607E10093FC06EF93FF9329
:1002D000E6EFF3E00E94A550FF91EF910E941253C8
:1002E0000E944A5000E00093FB0600E20093FC06E7
:1002F000EF93FF93E6E0F4E00E94A550FF91EF91A9
:100300000E9412530E944A5000E00093FB0609E24B
:100310000093FC06EF93FF93E6E1F4E00E94A55002
:10032000FF91EF910E9412530E944A5000E0009307
:10033000FB0609E30093FC06EF93FF93E6E2F4E08B
:100340000E94A550FF91EF91ECE3F4E004E0019FDF
:10035000E00DF11D05910093FB0605910093FC064D
:1003600005910093FD0604910093FE0600E00093C2
:10037000FF060E94C34F0E943B520E940753083061
:1003800009F40895043021F41A950AF413E06ECFAD
:10039000023029F41395143009F410E067CF0130CE
:1003A000C1F4E7E9F0E002E0019FE00DF11D0E94D9
:1003B0001253C0E0D3E8E0E0FDE70E94172FA02D24
:1003C000B12DE7E9F0E002E0019FE00DF11D0E9490
:1003D00019534CCF43616D65726120537461622083
:1003E000536574757000526F6C6C206761696E2084
:1003F0002020203A0000526F6C6C206F6666736597
:100400007420203A00005069746368206761696E47
:100410002020203A00005069746368206F6666737C
:100420006574203A00004241434B2050524556200B
:100430004E455854204348414E474500530D6E16D3
:1004400053166E1F531F6E2853286E3100918D0670
:100450000093960600918E060093970600918F06F2
:1004600000939806109178062091790630917A06CB
:1004700040918A0650918B0660918C060E945F53D2
:100480007093400580934105209242053091960675
:1004900040919706509198066091400570914105F2
:1004A00080914205580F471F361F309396064093A0
:1004B0009706509398060091930600939906009131
:1004C000940600939A060091950600939B0610915E
:1004D0007B0620917C0630917D06409190065091DC
:1004E0009106609192060E945F537093400580933D
:1004F0004105209242053091990640919A0650910B
:100500009B06609140057091410580914205580F0E
:10051000471F361F3093990640939A0650939B06C7
:1005200000E000934005009341050093420530919F
:100530008A0640918B0650918C066091400570911F
:1005400041058091420558174707360709F441C015
:10055000309190064091910650919206609140052D
:10056000709141058091420558174707360709F4F5
:1005700030C0009196060093FD0500919706009308
:10058000FE05009198060093FF05009199060093DF
:10059000000600919A060093010600919B060093C5
:1005A000020600918D0600932D0600918E060093A1
:1005B0002E0600918F0600932F060091930600935C
:1005C0003006009194060093310600919506009341
:1005D000320608950091A7060093AC060091A80684
:1005E0000093AD060091A9060093AE060091AA06FD
:1005F0000093AF060091AB060093B00608953090CB
:10060000A7064090A8065090A9066090AA06709090
:10061000AB062091A7063091A8064091A9065091FB
:10062000AA066091AB060E944754B093D406C093CB
:10063000D506D093D606E093D706F093D80630902F
:10064000D4064090D5065090D6066090D70670909C
:10065000D80601E00E94E0543092D4064092D506BC
:100660005092D6066092D7067092D80601E00093A9
:10067000D90600E00093DA0600E00093DB0600E014
:100680000093DC0600E00093DD063090D906409030
:10069000DA065090DB066090DC067090DD06209153
:1006A000D4063091D5064091D6065091D706609178
:1006B000D806761A650A540A430A320A3092B106FD
:1006C0004092B2065092B3066092B4067092B5069C
:1006D0000895B093A706A093A806D093A906C09347
:1006E000AA06F093AB063090A7064090A80650905B
:1006F000A9066090AA067090AB062091A2063091E0
:10070000A3064091A4065091A5066091A6060E94FA
:100710004754B093A706C093A806D093A906E093C8
:10072000AA06F093AB060895EE27FF27CD2FDA2F08
:10073000AB2FBB2312F4BFEF0895BB2708954ADF08
:100740005EDF3090CA064090CB065090CC06609099
:10075000CD067090CE062091B1063091B206409140
:10076000B3065091B4066091B5060E944754B09309
:10077000E806C093E906D093EA06E093EB06F0930F
:10078000EC063090CF064090D0065090D106609095
:10079000D2067090D3062091AC063091AD06409100
:1007A000AE065091AF066091B0060E944754B093D8
:1007B000D406C093D506D093D606E093D706F0931F
:1007C000D8063090E8064090E9065090EA0660901E
:1007D000EB067090EC062091D4063091D50640913E
:1007E000D6065091D7066091D806761A650A540A43
:1007F000430A320A3092E8064092E9065092EA062D
:100800006092EB067092EC063090CA064090CB06E0
:100810005090CC066090CD067090CE062091AC062C
:100820003091AD064091AE065091AF066091B00692
:100830000E944754B093ED06C093EE06D093EF06A6
:10084000E093F006F093F1063090CF064090D0068A
:100850005090D1066090D2067090D3062091B106D8
:100860003091B2064091B3065091B4066091B5063E
:100870000E944754B093D406C093D506D093D606B1
:10088000E093D706F093D8063090ED064090EE0640
:100890005090EF066090F0067090F1062091D4061B
:1008A0003091D5064091D6065091D7066091D80672
:1008B000760E651E541E431E321E3092ED06409287
:1008C000EE065092EF066092F0067092F1060895DF
:1008D000B0916D05A0916E05D0916F0526DFF9DE10
:1008E0000091BB060093CA060091BC060093CB069C
:1008F0000091BD060093CC060091BE060093CD0684
:100900000091BF060093CE060091C0060093CF066B
:100910000091C1060093D0060091C2060093D10653
:100920000091C3060093D2060091C4060093D3063B
:1009300006DF0091E8060093BB060091E9060093EC
:10094000BC060091EA060093BD060091EB060093F9
:10095000BE060091EC060093BF060091ED060093E1
:10096000C0060091EE060093C1060091EF060093C9
:10097000C2060091F0060093C3060091F1060093B1
:10098000C406B0916A05A0916B05D0916C05CDDECF
:10099000A0DE0091B6060093CA060091B706009348
:1009A000CB060091B8060093CC060091B9060093DF
:1009B000CD060091BA060093CE060091C0060093C2
:1009C000CF060091C1060093D0060091C2060093A5
:1009D000D1060091C3060093D2060091C40600938D
:1009E000D306ADDE0091E8060093B6060091E90655
:1009F0000093B7060091EA060093B8060091EB0653
:100A00000093B9060091EC060093BA060091ED063A
:100A10000093C0060091EE060093C1060091EF0618
:100A20000093C2060091F0060093C3060091F10600
:100A30000093C406B0915E05A0915F05D09160055A
:100A400074DE47DE0091B6060093CA060091B70631
:100A50000093CB060091B8060093CC060091B9062E
:100A60000093CD060091BA060093CE060091BB0616
:100A70000093CF060091BC060093D0060091BD06FE
:100A80000093D1060091BE060093D2060091BF06E6
:100A90000093D30654DE0091E8060093B606009159
:100AA000E9060093B7060091EA060093B8060091A4
:100AB000EB060093B9060091EC060093BA0600918C
:100AC000ED060093BB060091EE060093BC06009174
:100AD000EF060093BD060091F0060093BE0600915C
:100AE000F1060093BF0608953090B6064090B70611
:100AF0005090B8066090B9067090BA062091B6067C
:100B00003091B7064091B8065091B9066091BA0687
:100B10000E944754B093D406C093D506D093D6060E
:100B2000E093D706F093D8063090BB064090BC0601
:100B30005090BD066090BE067090BF062091BB0627
:100B40003091BC064091BD065091BE066091BF0633
:100B50000E944754B093D906C093DA06D093DB06BF
:100B6000E093DC06F093DD063090D4064090D50685
:100B70005090D6066090D7067090D8062091D9067E
:100B80003091DA064091DB065091DC066091DD067B
:100B9000760E651E541E431E321E3092D4064092BD
:100BA000D5065092D6066092D7067092D80630903D
:100BB000C0064090C1065090C2066090C306709077
:100BC000C4062091C0063091C1064091C2065091E2
:100BD000C3066091C4060E944754B093D906C093DF
:100BE000DA06D093DB06E093DC06F093DD06309066
:100BF000D4064090D5065090D6066090D7067090E7
:100C0000D8062091D9063091DA064091DB06509142
:100C1000DC066091DD06760E651E541E431E321EF4
:100C20003092C5064092C6065092C7066092C8062A
:100C30007092C90608950091B6060093E3060091EC
:100C4000B7060093E4060091B8060093E50600910C
:100C5000B9060093E6060091BA060093E7062ED087
:100C600000917E060093780600917F060093790636
:100C70000091800600937A060091BB060093E3067C
:100C80000091BC060093E4060091BD060093E506C2
:100C90000091BE060093E6060091BF060093E706AA
:100CA0000DD000917E0600937B0600917F06009395
:100CB0007C060091800600937D0608950AE5009366
:100CC000D90600E00093DA0600E00093DB0600E0BE
:100CD0000093DC0600E00093DD063090E3064090D0
:100CE000E4065090E5066090E6067090E7062091D5
:100CF000D9063091DA064091DB065091DC0660910E
:100D0000DD060E944754B093D406C093D506D09315
:100D1000D606E093D706F093D806B091D406A091FA
:100D2000D506D091D606C091D706F091D806FEDC44
:100D3000B0937E06A0937F06D093800608950E940C
:100D4000905201E00093FF0602E00093000700E0EC
:100D50000093FB0601E00093FC06EF93FF93EAEC9F
:100D6000FEE00E94A550FF91EF91EEE8F0E00E94B6
:100D70002053BB270E944A5000E00093FB060090DE
:100D8000FC0609E0000E0092FC06EF93FF93E8EDED
:100D9000FEE00E94A550FF91EF910E9420530E9417
:100DA0004A5000E00093FB060090FC0609E0000EAC
:100DB0000092FC06EF93FF93E6EEFEE00E94A55042
:100DC000FF91EF910E9420530E944A5000E000934F
:100DD000FB060090FC0609E0000E0092FC06EF9373
:100DE000FF93E4EFFEE00E94A550FF91EF910E9477
:100DF00020530E944A5000E00093FB060090FC063E
:100E000009E0000E0092FC06EF93FF93E2E0FFE0A2
:100E10000E94A550FF91EF910E9420530E944A50DA
:100E200000E00093FB0609E30093FC06EF93FF93B9
:100E3000E0E1FFE00E94A550FF91EF91E6E2FFE0C4
:100E400004E0019FE00DF11D05910093FB06059163
:100E50000093FC0605910093FD0604910093FE06A5
:100E600000E00093FF060E94C34F0E943B520E9485
:100E70000753083009F40895043021F41A950AF450
:100E800014E05DCF023029F41395153009F410E019
:100E900056CF0130C9F4EEE8F0E001E0019FE00D2B
:100EA000F11D0E942053C1E0D0E0E8E0F0E0B0E0A6
:100EB0000E94172FA02DB12DEEE8F0E001E0019F78
:100EC000E00DF11D0E9424533ACF526F6C6C202824
:100ED00041696C2920203A005069746368202845D4
:100EE0006C6529203A005468726F74746C65202018
:100EF00020203A005961772028527564292020204B
:100F00003A004155582020202020202020203A005F
:100F10004241434B2050524556204E4558542043A1
:100F200048414E4745004D0055094D0955124D1297
:100F3000551B4D1B55244D24552D00E000934005B5
:100F4000009341050093420530916C0640916D0677
:100F500050916E0660914005709141058091420567
:100F600058174707360759F030916C0640916D06C7
:100F70004150304030936C0640936D0608950091C7
:100F80001E0700231AF002E00093400700911F079C
:100F900000231AF003E0009340070091200700238C
:100FA0001AF004E0009340070091210700231AF093
:100FB00005E000934007089502E301B90AE004B98F
:100FC0000CEF07B902EF0AB90FEF00937E0005EFAF
:100FD00005B903E008B90DE00BB9A4E1B0E00E9447
:100FE000E3520E94F652063031F403EF0AB90E9430
:100FF000825A02EF0AB900E00093800002E00093F9
:10100000810000E000938200E6E9F0E00E943C539A
:101010000093440705E10093690007E00DBB0091D0
:101020004407002322F402E00093680003C00AE0B2
:101030000093680001E00093730001E000936C00EE
:101040000091B9000C7F0093B90001E10093B80052
:101050005D9A5C9A5E982B9A299AA4EFB1E00E945F
:10106000E3522B9829985E9AA4E6B0E00E94E352DE
:101070000895089507EE0A95F1F708950E94905299
:1010800001E00093FF0602E00093000700E00093F8
:10109000FB060AE00093FC06EF93FF93ECE1F1E11D
:1010A0000E94A550FF91EF9100E00093FB0603E141
:1010B0000093FC06EF93FF93E8E2F1E10E94A55054
:1010C000FF91EF9100E00093FB060DE10093FC0619
:1010D000EF93FF93EEE3F1E10E94A550FF91EF91B2
:1010E0000E943B52A8EEB3E00E94E35208950E9492
:1010F0003E0800E00093FB0609E30093FC06EF9333
:10110000FF93E8EAFBE70E94A550FF91EF910E9450
:101110003B520E94F6520830E1F708954857205696
:10112000657220322E3120004657205665722031DC
:101130002E31325331426567696E6E6572005374A9
:1011400065766569732000000E94905201E000936B
:10115000FF0602E00093000704E10093FB0609E1AB
:101160000093FC06EF93FF93EAE8FAE10E94A55092
:10117000FF91EF9100E00093FB0609E30093FC066A
:10118000EF93FF93E8E9FAE10E94A550FF91EF91F8
:101190000E943B520E940753013009F00895002736
:1011A000E0E0F0E00E9444530C943F0000E0009324
:1011B000400500934105009342053091600640913F
:1011C00061065091620660914005709141058091E1
:1011D000420558174707360759F03091600640918D
:1011E000610641503040309360064093610603C071
:1011F000002700933F0700902A0710902C0701203A
:1012000000923807009138070023B2F530915D064F
:1012100040915E064150304030935D0640935E063B
:1012200000E0009340050093410500934205309192
:101230005D0640915E0650915F0660914005709199
:10124000410580914205581747073607ACF403E083
:1012500000935D0600E200935E0600E000935F06E7
:101260000FEF00933F0700E00093600604E1009356
:10127000610600E00093620600902A0710902B0799
:1012800001240092380700902A0710902A070120B5
:1012900000922B070091380700233AF400E00093F6
:1012A0006F06009370060093710600E000934005FE
:1012B00000E00093410501E00093420530916F0684
:1012C0004091700650917106609140057091410502
:1012D00080914205580F471F361F30936F06409389
:1012E0007006509371060DE70093400500E00093EF
:1012F000410500E00093420530916F064091700671
:1013000050917106609140057091410580914205B0
:1013100058174707360764F00091400500936F06A1
:1013200000914105009370060091420500937106FB
:101330000AE0009340050CEF0093410500E800939C
:10134000420530916F064091700650917106609190
:1013500040057091410580914205581747073607AF
:10136000B4F1309172064091730641503040309391
:1013700072064093730600E0009340050093410518
:1013800000934205309172064091730650917406A5
:1013900060914005709141058091420558174707BB
:1013A0003607ACF407E00093720600ED0093730675
:1013B00000E0009374060FEF00933F0701E00093F5
:1013C000600600E90093610600E000936206009069
:1013D0003F0710903E070128009238070090380719
:1013E0001090450701280092380700913807002324
:1013F00012F029980895299A08950F93CF93299A66
:10140000C2E30E94E8522998CF910F910895402F8E
:101410002A2F3B2F0E94905201E00093FF0605E027
:1014200000930007203049F00AE30093FB0600E038
:101430000093FC0602E00E94AB50022F0B5F0417E2
:1014400049F00AE30093FB0602E30093FC0603E085
:101450000E94AB5002E00093000708E00093FC06F6
:1014600015E0FE0104E1029FE00DF11D00E0009394
:10147000FB06A4E105910E94AB50AA95D9F7009014
:10148000FC0608E0000E0092FC061A9579F708E0C9
:10149000039F002D095F0093FC06075F0093FE0683
:1014A00000E00093FB060FE70093FD0600E00093C9
:1014B000FF060E94C34F00E00093FB0609E3009380
:1014C000FC06EF93FF93E8E5F5E10E94A550FF913C
:1014D000EF910E943B52AEE10E94F652003011F0B3
:1014E000AA95D1F70E94F6520030E1F30E94FD095F
:1014F000083019F4AA2788942BC0043061F43030E6
:1015000019F03A950C94AB0A203019F02A950C94F6
:10151000AB0A0C94AB0A023071F4343019F03395F5
:101520000C94AB0A042F0550201719F023950C9446
:10153000AB0A0C94AB0A013071F40E9490520E94E5
:101540003B520E94F6520030E1F7A22FA30F0894FD
:10155000C22FD32F08955ECF4241434B20205550D8
:10156000202020444F574E20454E54455200309184
:101570009705409198055091990560919A05709151
:101580009B0580919C05581B470B360B3093B20589
:101590004093B3055093B4056091B2057091B305C3
:1015A0008091B40508E00E9450536093B205709397
:1015B000B3058093B40530919A0540919B055091F5
:1015C0009C056091B2057091B3058091B405580FE8
:1015D000471F361F30939A0540939B0550939C05F7
:1015E00030914206409143065091440660919A051D
:1015F00070919B0580919C05581B470B360B3093CF
:10160000B2054093B3055093B4050AF455C06091F8
:10161000B2057091B3058091B40502E00E94505369
:101620006093B2057093B3058093B40500E0009316
:10163000400500E10093410500E000934205309130
:10164000B2054091B3055091B40560914005709189
:1016500041058091420558174707360764F000910D
:1016600040050093B205009141050093B305009138
:1016700042050093B40530915406409155065091AF
:1016800056066091B2057091B3058091B405580F6C
:10169000471F361F30935406409355065093560605
:1016A000B0915406A0915506D0915606AA2322F077
:1016B0000FEF00933E070895002700933E0708951B
:1016C00000912A0700236AF1309175064091760651
:1016D00041503040309375064093760600E0009309
:1016E00040050093410500934205309175064091F5
:1016F0007606509177066091400570914105809182
:10170000420558174707360764F40FEF0093300778
:1017100001E00093750600E90093760600E000936F
:1017200077060090310710903307012000923807A8
:1017300000903107009400923A0700903A07109009
:1017400034070120009239070090380710903907BC
:1017500001280092320700912A07002312F02B98EB
:1017600008952B9A0895109187062091880630914C
:10177000890640913C0650913D0660913E060E94CC
:101780005F5370934005809341052092420500917C
:101790003F06009333060091400600933406009103
:1017A0004106009335063091400540914105509126
:1017B00042056091330670913406809135065817C2
:1017C0004707360764F00091330600934005009107
:1017D000340600934105009135060093420560915F
:1017E00033067091340680913506552744273327F8
:1017F000581B470B360B30933306409334065093F7
:101800003506309140054091410550914205609167
:10181000330670913406809135065817470736070E
:1018200064F4009133060093400500913406009360
:101830004105009135060093420530914F054091D6
:10184000500550915105609140057091410580917E
:101850004205581B470B360B30934F0540935005FC
:10186000509351050895CEE0D9E1A0910407B091BD
:10187000030703E10E94070AC0930407D0930307FC
:1018800008F008950E94905201E00093FF0602E0E4
:101890000093000704E10093FB0609E10093FC06B6
:1018A000EF93FF93EAE8FAE10E94A550FF91EF91D0
:1018B00000E00093FB0609E30093FC06EF93FF931F
:1018C000E8E9FAE10E94A550FF91EF910E943B5296
:1018D0000E940753013009F0C6CF299AEEEAFAE1D7
:1018E00000E40A9FE00DF11DDF01C4E0D0E010E448
:1018F000FD010491FE010E944453119621961A9510
:10190000B9F729980E94C8220E94A310ACCF53694E
:101910006E676C65436F7074657220324D20325370
:10192000202053696E676C65436F70746572203157
:101930004D20345320204475616C436F7074657280
:1019400020202020202020202020547269436F7006
:10195000746572202020202020202020202059364D
:101960002020202020202020202020202020202077
:10197000202051756164726F436F70746572202B03
:10198000206D6F64652051756164726F436F707470
:1019900065722078206D6F646520583820202020E3
:1019A000202020202020202B206D6F6465205838B7
:1019B000202020202020202020202078206D6F64EF
:1019C000652048657861436F707465722020202B14
:1019D000206D6F64652048657861436F707465722F
:1019E00020202078206D6F6465204F63746F436FF3
:1019F000707465722020202B206D6F6465204F630A
:101A0000746F436F7074657220202078206D6F644E
:101A10006520483620202020202020202020202043
:101A20002020202020204838202020202020202076
:101A3000202020202020202020205636202020205A
:101A40002020202020202020202020202020563848
:101A50002020202020202020202020202020202086
:101A60002020593420202020202020202020202029
:101A7000202020202020562D5461696C2020202019
:101A80002020202020202020202041726520796FF6
:101A90007520737572653F0043414E43454C2020CD
:101AA00020202020202020202020594553006400A1
:101AB0000064000300006400009C00030000006458
:101AC000000032000000000064003200000000004E
:101AD0000000000000000000000000000000000006
:101AE0000000000000000000000000000000640092
:101AF00000000003000000640064320000000000E9
:101B0000646432000000009C0064320000000000A9
:101B10009C64320000000000000000000000000093
:101B200000000000000000000000000000006464ED
:101B3000000000030000649C00000003000000009F
:101B400064640000000000009C64000000000000CD
:101B50000000000000000000000000000000000085
:101B6000000000000000000000000000000064A968
:101B7000320000030000645732FF000300006400DD
:101B80009C00000300000000006432000000000020
:101B90000000000000000000000000000000000045
:101BA000000000000000000000000000000064A928
:101BB00032640003000064A9329C000300006457F3
:101BC0003264000300006457329C0003000064008C
:101BD0009C640003000064009C9C00030000000063
:101BE0000000000000000000000000000000640091
:101BF0006464000300006464009C0003000064004F
:101C00009C6400030000649C009C00030000000032
:101C100000000000000000000000000000000000C4
:101C2000000000000000000000000000000064B997
:101C30004764000300006447479C000300006447BA
:101C4000B9640003000064B9B99C000300000000FF
:101C50000000000000000000000000000000000084
:101C60000000000000000000000000000000640010
:101C70006464000300006400649C0003000064646A
:101C80000064000300006464009C00030000640022
:101C90009C640003000064009C9C00030000649CA2
:101CA000006400030000649C009C0003000064B911
:101CB00047640003000064B9479C000300006447C8
:101CC0004764000300006447479C0003000064472A
:101CD000B964000300006447B99C0003000064B9C4
:101CE000B9640003000064B9B99C000300006400FB
:101CF0006464000300006457329C000300006457D2
:101D0000CE640003000064009C9C0003000064A9F2
:101D1000CE640003000064A9329C000300000000B0
:101D2000000000000000000000000000000064321D
:101D30005764000300006464009C000300006432E8
:101D4000A9640003000064CEA99C00030000649C09
:101D500000640003000064CE579C000300000000F4
:101D6000000000000000000000000000000064000F
:101D70006464000300006447479C0003000064643F
:101D80000064000300006447B99C00030000640085
:101D90009C640003000064B9B99C00030000649CCB
:101DA00000640003000064B9479C0003000064263F
:101DB0005C6400030000645C269C00030000645C1B
:101DC000DA64000300006426A49C0003000064DAC7
:101DD000A4640003000064A4DA9C0003000064A46F
:101DE00026640003000064DA5C9C00030000644782
:101DF0004764000300006447009C00030000644740
:101E0000B9640003000064B9B99C0003000064B920
:101E100000640003000064B9479C00030000000058
:101E20000000000000000000000000000000644707
:101E30004764000300006447189C000300006447E7
:101E4000E864000300006447B99C0003000064B923
:101E5000B9640003000064B9E89C0003000064B9A1
:101E600018640003000064B9479C00030000646428
:101E70004764000300006447009C00030000642ADC
:101E8000B9640003000064D6B99C0003000064B983
:101E9000006400030000649C479C000300000000F5
:101EA000000000000000000000000000000064646A
:101EB0004764000300006451189C00030000643D67
:101EC000E86400030000642AB99C0003000064D6A3
:101ED000B9640003000064C3E89C0003000064AF21
:101EE000186400030000649C479C0003000064B970
:101EF0004764000300006447479C0003000064003F
:101F00009C640003000064009C9C0003000000002F
:101F100000000000000000000000000000000000C1
:101F2000000000000000000000000000000064B994
:101F3000470000030000644747FF000300007800EB
:101F4000A664000300007800A69C000300000000C7
:101F50000000000000000000000000000000000081
:101F600000000000000000000000000000000E94CF
:101F7000905201E00093FF0602E00093000700E0AA
:101F80000093FB0601E00093FC06EF93FF93E8ED5E
:101F9000F0E20E94A550FF91EF91E2E7F0E00E948D
:101FA00012530E944A5000E00093FB060090FC068A
:101FB00009E0000E0092FC06EF93FF93E2EEF0E2E0
:101FC0000E94A550FF91EF910E9412530E944A5027
:101FD00000E00093FB060090FC060CE0000E00926F
:101FE000FC06EF93FF93ECEEF0E20E94A550FF9108
:101FF000EF910E9412530E944A5000E00093FB06AA
:102000000090FC0609E0000E0092FC06EF93FF939F
:10201000EEEFF0E20E94A550FF91EF910E94125363
:102020000E944A5000E00093FB0609E30093FC067F
:10203000EF93FF93E0E1F1E20E94A550FF91EF9151
:10204000E6E2F1E204E0019FE00DF11D059100934D
:10205000FB0605910093FC0605910093FD06049193
:102060000093FE0600E00093FF060E94C34F0E940B
:102070003B520E940753083009F40895043021F4BC
:102080001A950AF413E073CF023029F41395143033
:1020900009F410E06CCF0130F1F4E2E7F0E002E087
:1020A000019FE00DF11DEF93FF930E941253E6E3B1
:1020B000F1E204E0019FE00DF11DC591D59105907D
:1020C0001590E02DF12D0E94172FA02DB12DFF911D
:1020D000EF910E9419534BCF50204761696E202029
:1020E0003A0050206C696D6974203A0041434320E6
:1020F0005472696D20526F6C6C20203A000041438D
:1021000043205472696D205069746368203A00005E
:102110004241434B2050524556204E45585420438F
:1021200048414E47450035004F0935094F125F15AC
:102130007F1E5F1E7F270000007D0000007D18FCD1
:10214000E80318FCE80344240E94905200E0009346
:10215000FB0600E00093FC0602E00093000701E0AC
:102160000093FF06EF93FF93E6E6F5E20E94A55089
:10217000FF91EF914420A1F4EF93FF93EEE6F5E297
:102180000E94A550FF91EF910FEF602E08E0802E86
:1021900055240E94051153948A948820D1F709C0D0
:1021A000542C5A94A42DBB270E944A5066240E94A6
:1021B000051102E00093000701E00093FF0600E034
:1021C0000093FB0609E30093FC06EF93FF93EAE715
:1021D000F5E20E94A550FF91EF910E943B520E94B0
:1021E0000753083009F40895043031F4439409E0AA
:1021F000401609F44424A8CF023031F44A94442014
:1022000012F408E0402EA0CF9FCFE0E0F5E008E018
:10221000059DE00DF11D01E00093FF060FEF702E0C
:10222000DD27A181BB27AA2312F4DFEFBFEFB09314
:10223000E805A093E905D093EA0500E00093400586
:1022400000934105009342053091E8054091E9056E
:102250005091EA05609140057091410580914205D9
:1022600058174707360709F0772400E00093400528
:1022700000E00093410500E4009342051091E80559
:102280002091E9053091EA054091400550914105C2
:10229000609142050E945F537093E8058093E905C1
:1022A0002092EA0500E00093400500E60093410516
:1022B00000E0009342053091E8054091E905509116
:1022C000EA05609140057091410580914205580FE3
:1022D000471F361F3093E8054093E9055093EA0500
:1022E000B091E805A091E905D091EA05A093FB061D
:1022F000DD27A281BB27AA2312F4DFEFBFEFB09343
:10230000E805A093E905D093EA0500E000934005B5
:1023100000934105009342053091E8054091E9059D
:102320005091EA0560914005709141058091420508
:1023300058174707360709F077240FEF0093400539
:102340000FEF0093410500EC009342051091E80562
:102350002091E9053091EA054091400550914105F1
:10236000609142050E945F537093E8058093E905F0
:102370002092EA0500E00093400500E20093410549
:1023800000E0009342053091E8054091E905509145
:10239000EA05609140057091410580914205580F12
:1023A000471F361F3093E8054093E9055093EA052F
:1023B000B091E805A091E905D091EA05A093FC064B
:1023C000DD27A081BB27AA2312F4DFEFBFEFB09374
:1023D000E805A093E905D093EA0500E000934005E5
:1023E00000934105009342053091E8054091E905CD
:1023F0005091EA0560914005709141058091420538
:1024000058174707360709F07724A381AA2309F054
:102410007724772092F466200AF4089502E400936A
:10242000FB060BE10093FC06EF93FF93EEE5F5E26C
:102430000E94A550FF91EF910895A581A0FD11C0C4
:10244000662072F002E40093FB060BE10093FC06A9
:10245000EF93FF93E2E7F5E20E94A550FF91EF9121
:10246000089500E60093FD0600E20093FE060E9438
:1024700067510091FB0604500093FB060091FC0697
:1024800007500093FC0605E00093000704E0A381D9
:10249000AA230AF005E00E94AB500091FB060E5003
:1024A0000093FB060090FC0605E0000E0092FC067F
:1024B00000E00093000700E00093FF06052D0E9456
:1024C000AB5066200AF44AC002E00093000701E026
:1024D0000093FF0600E00093FB060FE00093FC066C
:1024E000EF93FF93EEE8F5E20E94A550FF91EF9184
:1024F00000E00093FB0608E10093FC06EF93FF93D6
:10250000E8E9F5E20E94A550FF91EF9100E0009309
:10251000FB0601E20093FC06EF93FF93E2EAF5E28B
:102520000E94A550FF91EF9100E00093FB060AE2A4
:102530000093FC06A381AA234AF0EF93FF93E6E8F9
:10254000F5E20E94A550FF91EF9108C0EF93FF9331
:10255000EAE8F5E20E94A550FF91EF910895556ECB
:10256000757365642E004D6F746F723A2000414C94
:102570004C00536572766F2E00004241434B202081
:102580004E455854000043570000434357004469E8
:1025900072656374696F6E007365656E2066726F35
:1025A0006D0061626F76653A00000BE60093F706F6
:1025B00020E80E94A94FA2E3B0E00E94E3520BE69C
:1025C0000093F70621E00E94A94F0AE10093F70665
:1025D000E2EAF0E00E943C5300937707202F0E942C
:1025E000A94F0BE10093F706E0EAF0E00E943C53AC
:1025F00000937307202F0E94A94F0CE10093F70668
:10260000E1EAF0E00E943C5300937407202F0E94FF
:10261000A94FA2E3B0E00E94E35208950AE10093BB
:10262000F7060E94D94D009377070BE10093F70658
:102630000E94D94D009373070CE10093F7060E94A6
:10264000D94D0093740708950E94905201E00093C1
:10265000FF0602E00093000701E00093FB0609E19A
:102660000093FC06EF93FF93E6E8F8E20E94A55082
:10267000FF91EF9100E00093FB060E943B5200E0C7
:102680000093240700E00093250701E0009327074B
:1026900008E0009326070FEF00932A0700E000935D
:1026A0005A0601E000935B0600E000935C062B9A5B
:1026B00006E006BB0E94BD390E94A342002700939A
:1026C0002C0700E00093400508EC0093410500E072
:1026D0000093420530914F054091500550915105AE
:1026E000609140057091410580914205581B470B50
:1026F000360B30934005409341055093420500E06E
:10270000009333060093340600933506309140055C
:102710004091410550914205609133067091340615
:10272000809135065817470736073CF400E00093C0
:102730004005009341050093420500E000933306F5
:1027400006E00093340600E0009335061091400542
:102750002091410530914205409133065091340655
:10276000609135060E945F53709340058093410548
:102770002092420500E00093330608E500933406FA
:102780000CEC009335063091400540914105509185
:102790004205609133067091340680913506580FDA
:1027A000471F361F30934005409341055093420523
:1027B000009140050093EB05009141050093EC0565
:1027C000009142050093ED05009140050093EE0550
:1027D000009141050093EF05009142050093F0053B
:1027E000009140050093F105009141050093F20529
:1027F000009142050093F305009140050093F40514
:10280000009141050093F505009142050093F605FE
:10281000009140050093F705009141050093F805EC
:10282000009142050093F905009140050093FA05D7
:10283000009141050093FB05009142050093FC05C2
:10284000009140050093FD05009141050093FE05B0
:10285000009142050093FF0500914005009300069A
:102860000091410500930106009142050093020684
:102870000E940F3A03B1009502950F70093009F4D8
:1028800019CF2B9808955468726F74746C6520701A
:102890006173732D7468726F75676800E0E0F0E033
:1028A0000E943C533196093181F40E943C53319689
:1028B000033159F40E943C533196033731F40E949E
:1028C0003C533196023109F40895A4E0B0E0C6EA21
:1028D000DAE210E4FE010491FD010E9444531196D6
:1028E00021961A95B9F7A4E4B0E0C6EEDAE218E151
:1028F000FE010491FD010E944453119621961A9500
:10290000B9F7A6E8B0E0CEEFDAE218E0FE010491F4
:10291000FD010E944453119621961A95B9F7AAE039
:10292000B0E0EAE7F0E00E941953A4E2B0E0E0E78B
:10293000F0E00E941953ABE4B0E0E2E7F0E00E945F
:102940001953A4E1B0E0E4E7F0E00E941953A0E0DD
:10295000B0E0ECE7F0E00E941953AEE1B0E0EEE742
:10296000F0E00E941953A0E0B0E0E0E8F0E00E943F
:102970001953A2E3B0E0E2E8F0E00E941953A8E0A6
:10298000B0E0E4E8F0E00E941953A0E0B0E0E6E730
:10299000F0E00E941953A0E0B0E0E8E7F0E00E9408
:1029A0001953A1E0B0E0EEE8F0E00E942453A2E069
:1029B000B0E0EFE8F0E00E942453A3E0B0E0E0E9EB
:1029C000F0E00E942453A4E0B0E0E1E9F0E00E94CE
:1029D0002453A5E0B0E0E2E9F0E00E942453A0E037
:1029E000B0E0E7E9F0E00E941953A2E3B0E0E9E9C2
:1029F000F0E00E941953A0E0B0E0EBE9F0E00E94A3
:102A00001953A2E3B0E0EDE9F0E00E941953AA27C0
:102A1000E3E9F0E00E9424530FEFA02FE4E9F0E097
:102A20000E9424530FEFA02FE5E9F0E00E94245309
:102A3000AA27EFE9F0E00E942453AA27E6E9F0E094
:102A40000E942453A8E0B0E0E0EAF0E00E942453A2
:102A5000A8E0B0E0E1EAF0E00E942453A0E0B0E09A
:102A6000E2EAF0E00E942453E0E0F0E009E10E9495
:102A70004453319603E10E944453319603E70E9488
:102A80004453319602E10E944453319615E00E946E
:102A9000FD09C0E00E94E8521A95C9F70E943A4C1D
:102AA0000E94330C089500000000000000000000A8
:102AB0000000000000000000000000000000000016
:102AC0000000000000000000000000000000000006
:102AD00000000000000000000000000000000000F6
:102AE000000000000000410064001E0014004100CE
:102AF00064001E0014004100140032000A001E0091
:102B00001E002D005A000E94905201E00093FF0623
:102B100002E00093000700E00093FB0601E0009351
:102B2000FC06EF93FF93E8E3F1E30E94A550FF91C9
:102B3000EF9100E00093FB060090FC0609E0000E18
:102B40000092FC06EF93FF93EEE4F1E30E94A550A0
:102B5000FF91EF9100E00093FB060090FC0609E076
:102B6000000E0092FC06EF93FF93E2E6F1E30E9471
:102B7000A550FF91EF9100E00093FB060090FC064A
:102B800009E0000E0092FC06EF93FF93E2E7F1E309
:102B90000E94A550FF91EF9100E00093FB0600908A
:102BA000FC0609E0000E0092FC06EF93FF93E8E8B4
:102BB000F1E30E94A550FF91EF9100E00093FB0626
:102BC0000090FC0609E0000E0092FC06EF93FF93D4
:102BD000EAE9F1E30E94A550FF91EF9100E0009334
:102BE000FB0609E30093FC06EF93FF93E2E2F1E3B7
:102BF0000E94A550FF91EF910E943B520E94075303
:102C00000130E1F7A5E3B0E00E94905200E00093AC
:102C1000FB0601E00093FC06EF93FF93E0EBF1E38A
:102C20000E94A550FF91EF9100E00093FB060090F9
:102C3000FC0609E0000E0092FC06EF93FF93EEEB1A
:102C4000F1E30E94A550FF91EF9100E00093FB0695
:102C50000090FC0609E0000E0092FC06EF93FF9343
:102C6000EEECF1E30E94A550FF91EF9100E000939C
:102C7000FB060090FC0609E0000E0092FC06EF93B4
:102C8000FF93E8EDF1E30E94A550FF91EF9100E082
:102C90000093FB060090FC0609E0000E0092FC0683
:102CA000EF93FF93E6EEF1E30E94A550FF91EF91C1
:102CB00000E00093FB060090FC0609E0000E009285
:102CC000FC06EF93FF93E4EFF1E30E94A550FF9120
:102CD000EF9108E70093FB0601E00093FC060A2F42
:102CE0000E94AB5005E50093FB0609E0B09F002D64
:102CF000065F0093FC06EF93FF93E2E0F2E30E948D
:102D0000A550FF91EF910E943B52D7E0C0E00E9496
:102D1000E852DA95D9F7B395B53009F075CFB0E040
:102D2000AA95AF3209F070CF0E94905209E100934A
:102D3000FB0609E10093FC06EF93FF93E6E0F2E364
:102D40000E94A550FF91EF910E943B52C0E00E946B
:102D5000E852E0E100E000938505009386050093CA
:102D6000870500E0009388050093890500938A0594
:102D700000E000938B0500938C0500938D050E9465
:102D80005C4D309185054091860550918705609195
:102D90007C0570917D0580917E05580F471F361F79
:102DA00030938505409386055093870530918805BB
:102DB0004091890550918A0560917F057091800549
:102DC00080918105580F471F361F30938805409327
:102DD000890550938A0530918B0540918C0550915F
:102DE0008D05609182057091830580918405580F4F
:102DF000471F361F30938B0540938C0550938D05EC
:102E0000C4E60E94E852EA9509F0B9CF60918505C1
:102E1000709186058091870504E00E94505360936D
:102E2000850570938605809387056091880570916C
:102E3000890580918A0504E00E94505360938805BB
:102E40007093890580938A0560918B0570918C053C
:102E500080918D0504E00E94505360938B05709320
:102E60008C0580938D05D8E2C0E00E94E852DA9587
:102E7000D9F70E9490520FEF0093370700E00093BC
:102E8000FB060AE00093FC06EF93FF93E8E8FAE9FB
:102E90000E94A550FF91EF91B0918505A091860504
:102EA000D09187050E944A500E94134D00E0009384
:102EB000FB0603E10093FC06EF93FF93E2E9FAE9D6
:102EC0000E94A550FF91EF91B0918805A0918905CE
:102ED000D0918A050E944A500E94134D00E0009351
:102EE000FB060CE10093FC06EF93FF93ECE9FAE993
:102EF0000E94A550FF91EF91B0918B05A0918C0598
:102F0000D0918D050E944A500E94134D00E000931D
:102F1000FB0609E30093FC06EF93FF93E2E2F1E383
:102F20000E94A550FF91EF910E943B5200913707FC
:102F3000002322F5EDE5F0E0B0918505A09186052E
:102F4000D09187050E943253B0918805A0918905E0
:102F5000D0918A050E943253B0918B05A0918C05C7
:102F6000D0918D050E943253EFE9F0E00FEF002F72
:102F70000E94445300E00093400708C0EFE9F0E0EE
:102F800000270E94445301E0009340070E9407532A
:102F90000130E1F70E9490520091370700230AF4B4
:102FA0000FC000E00093FB0609E10093FC06EF93DD
:102FB000FF93E6E1F2E30E94A550FF91EF910EC06E
:102FC00000E00093FB0609E10093FC06EF93FF93FA
:102FD000EAE2F2E30E94A550FF91EF9100E0009336
:102FE000FB0609E30093FC06EF93FF93E2E2F1E3B3
:102FF0000E94A550FF91EF910E943B520E940753FF
:103000000130E1F70895E0E100E0009361050093ED
:1030100062050093630500E0009364050093650575
:103020000093660500E00093670500936805009330
:1030300069050E945C4D3091610540916205509197
:103040006305609158057091590580915A05580F94
:10305000471F361F30936105409362055093630507
:1030600030916405409165055091660560915B055E
:1030700070915C0580915D05580F471F361F309396
:10308000640540936505509366053091670540914E
:1030900068055091690560915E0570915F058091AA
:1030A0006005580F471F361F30936705409368052A
:1030B00050936905C4E60E94E852EA9509F0B9CF39
:1030C00060916105709162058091630504E00E9442
:1030D000505360936105709362058093630560911E
:1030E0006405709165058091660504E00E94505367
:1030F000609364057093650580936605609167052C
:10310000709168058091690504E00E9450536093B6
:10311000670570936805809369050FEF0093460774
:10312000089520202020202020202020202020431F
:103130004F4E54494E554500506C6163652074688C
:1031400065206169726372616674206F6E00612030
:103150006C6576656C207375726661636520616E5F
:103160006400707265737320434F4E54494E554549
:103170002E005468652046432077696C6C20746883
:10318000656E207761697400352073656320746F04
:10319000206C6574207468650000616972637261F7
:1031A000667420736574746C6520646F776E2E008E
:1031B00020202020206C64612023243335006C6F94
:1031C0006C3A2073746120243034323700002020A0
:1031D000202020736563000020202020207362637C
:1031E0002023243031002020202020636D702023F4
:1031F000243266002020202020626E65206C6F6CD7
:1032000000003C2D2D0043616C6962726174696E2F
:10321000672E2E2E000043616C6962726174696FC3
:103220006E206661696C65642E0043616C69627230
:103230006174696F6E2073756363656564656400AE
:103240000E94905201E00093FF0602E00093000705
:1032500000E00093FB0601E00093FC06EF93FF9370
:10326000E4E1F4E30E94A550FF91EF91E3E9F0E07F
:103270000E942053AA234AF4EF93FF93E0E7F4E37C
:103280000E94A550FF91EF9108C0EF93FF93E6E7EE
:10329000F4E30E94A550FF91EF9100E00093FB063C
:1032A0000AE00093FC06EF93FF93E4E2F4E30E944C
:1032B000A550FF91EF910E942053AA234AF4EF9367
:1032C000FF93EAE7F4E30E94A550FF91EF9108C055
:1032D000EF93FF93EEE7F4E30E94A550FF91EF9187
:1032E00000E00093FB0603E10093FC06EF93FF93DD
:1032F000E6E3F4E30E94A550FF91EF910E94205372
:10330000AA234AF4EF93FF93EAE7F4E30E94A5505F
:10331000FF91EF9108C0EF93FF93EEE7F4E30E9473
:10332000A550FF91EF9100E00093FB060CE10093A4
:10333000FC06EF93FF93E6E4F4E30E94A550FF91AF
:10334000EF910E942053AA234AF4EF93FF93EAE7F8
:10335000F4E30E94A550FF91EF9108C0EF93FF9313
:10336000EEE7F4E30E94A550FF91EF9100E0009397
:10337000FB0609E30093FC06EF93FF93E6E5F4E315
:103380000E94A550FF91EF91E2E8F4E304E0019F71
:10339000E00DF11D05910093FB0605910093FC06DD
:1033A00005910093FD0604910093FE0600E0009352
:1033B000FF060E94C34F0E943B520E9407530830F1
:1033C00039F4E4E9F0E00E943C53009328070895A3
:1033D000043021F41A950AF413E032CF023029F4B4
:1033E0001395143009F410E02BCF013091F4E3E988
:1033F000F0E001E0019FE00DF11D0E94205300E884
:10340000A027E3E9F0E001E0019FE00DF11D0E943B
:10341000245316CF53656C662D4C6576656C202061
:103420003A2000004C696E6B20526F6C6C20506922
:103430007463683A20004175746F20446973617247
:103440006D203A200000536174206F722043505069
:103450004D203A2000004241434B20505245562017
:103460004E455854204348414E4745004F6E00009A
:10347000537469636B0041555800596573004E6F72
:1034800000005300720964097A125312681B531B1F
:1034900068240E94905201E00093FF0602E000932E
:1034A000000700E00093FB0601E00093FC06EF93A9
:1034B000FF93EEE0F6E30E94A550FF91EF91EAE75B
:1034C000F0E00E9412530E944A5000E00093FB0675
:1034D0000AE00093FC06EF93FF93E0E2F6E30E941C
:1034E000A550FF91EF910E9412530E944A5000E0B4
:1034F0000093FB0603E10093FC06EF93FF93E2E3E6
:10350000F6E30E94A550FF91EF910E9412530E9492
:103510004A5000E00093FB060CE10093FC06EF9399
:10352000FF93E4E4F6E30E94A550FF91EF910E941F
:1035300012530E944A5000E00093FB0605E20093FC
:10354000FC06EF93FF93E6E5F6E30E94A550FF919A
:10355000EF910E9412530E944A5000E00093FB0634
:1035600009E30093FC06EF93FF93EAE7F6E30E947A
:10357000A550FF91EF91E0E9F6E304E0019FE00D33
:10358000F11D05910093FB0605910093FC06059142
:103590000093FD0604910093FE0600E00093FF06F1
:1035A0000E94C34F0E943B520E940753083009F407
:1035B0000895043021F41A950AF414E06ACF023019
:1035C00029F41395153009F410E063CF0130F1F4BC
:1035D000EAE7F0E002E0019FE00DF11DEF93FF93B9
:1035E0000E941253E8EAF6E304E0019FE00DF11DAA
:1035F000C591D59105901590E02DF12D0E94172FC2
:10360000A02DB12DFF91EF910E94195342CF4D692A
:103610006E696D756D207468726F74746C653A00B4
:103620004865696768742044616D70656E696E678E
:103630003A0048656967687420442E204C696D69BA
:1036400074203A00416C61726D20312F3130207648
:103650006F6C74733A00536572766F2066696C7490
:103660006572202020203A00416363205357206672
:10367000696C7465722020203A004241434B20500F
:10368000524556204E455854204348414E47450028
:1036900065007F0965097F1265127F1B651B7F240A
:1036A00065247F2D652D7F36000014000000F40195
:1036B00000001E000000007D0000640004004000C7
:1036C0000E94905201E00093FF0602E00093000781
:1036D00000E00093FB0601E00093FC06EF93FF93EC
:1036E000E8E2F8E30E94A550FF91EF9100E000931B
:1036F000FB060EE00093FC06EF93FF93E6E3F8E38E
:103700000E94A550FF91EF91E6E8F0E00E9412536D
:103710000E944A5000E00093FB0607E10093FC067C
:10372000EF93FF93E4E4F8E30E94A550FF91EF913B
:103730000E9412530E944A5000E00093FB0600E2F0
:103740000093FC06EF93FF93E2E5F8E30E94A55097
:10375000FF91EF910E9412530E944A5000E00093A3
:10376000FB0609E20093FC06EF93FF93E0E6F8E323
:103770000E94A550FF91EF910E9412530E944A505F
:1037800000E00093FB0609E30093FC06EF93FF9330
:10379000EEE6F8E30E94A550FF91EF91E4E8F8E32C
:1037A00004E0019FE00DF11D05910093FB060591DA
:1037B0000093FC0605910093FD0604910093FE061C
:1037C00000E00093FF060E94C34F0E943B520E94FC
:1037D0000753083009F40895043021F41A950AF4C7
:1037E00013E06ECF023029F41395143009F410E081
:1037F00067CF0130C1F4E6E8F0E002E0019FE00DA0
:10380000F11D0E941253C0E0D0E0E0E0FDE70E940D
:10381000172FA02DB12DE6E8F0E002E0019FE00DAA
:10382000F11D0E9419534CCF537469636B2053638D
:10383000616C696E6700526F6C6C202841696C295D
:1038400020203A0050697463682028456C6529205F
:103850003A005961772028527564292020203A00C7
:103860005468726F74746C65202020203A004241C5
:10387000434B2050524556204E4558542043484112
:103880004E4745004D0D6E164D166E1F4D1F6E288E
:103890004D286E310E94905201E00093FF0602E035
:1038A0000093000706E00093FB0604E00093FC068B
:1038B000EF93FF93E6E3FDE30E94A550FF91EF91A4
:1038C00006E00093FB060DE00093FC06EF93FF93E8
:1038D000EAE4FDE30E94A550FF91EF9106E000931A
:1038E000FB0606E10093FC06EF93FF93EEE5FDE394
:1038F0000E94A550FF91EF9100E00093FB0609E3C1
:103900000093FC06EF93FF93E8EBFCE30E94A550C5
:10391000FF91EF910E943B520E940753083009F437
:103920000895013011F00C944A1C0E940E1300916E
:103930007307087106950695069500937307009125
:103940007407087106950695069500937407009311
:1039500075070091770707700093770710E00E94C2
:10396000905201E00093FF0602E00093000700E0A0
:103970000093FB0601E00093FC06EF93FF93E2E760
:10398000FCE30E94A550FF91EF9104E60093FB0633
:1039900000917307003041F4EF93FF93E2EFFCE3F3
:1039A0000E94A550FF91EF91013041F4EF93FF93F6
:1039B000E6EFFCE30E94A550FF91EF91023041F445
:1039C000EF93FF93EAEFFCE30E94A550FF91EF9184
:1039D000033041F4EF93FF93E0E0FDE30E94A55034
:1039E000FF91EF9100E00093FB060AE00093FC06D4
:1039F000EF93FF93E2E8FCE30E94A550FF91EF9163
:103A000004E60093FB0600917407003041F4EF9345
:103A1000FF93E6E0FDE30E94A550FF91EF91013096
:103A200041F4EF93FF93E8E0FDE30E94A550FF917E
:103A3000EF91023041F4EF93FF93EAE0FDE30E943F
:103A4000A550FF91EF91033041F4EF93FF93ECE029
:103A5000FDE30E94A550FF91EF9100E00093FB066B
:103A600003E10093FC06EF93FF93E2E9FCE30E947D
:103A7000A550FF91EF9104E60093FB0600917707B4
:103A8000003041F4EF93FF93E0E1FDE30E94A55085
:103A9000FF91EF91013041F4EF93FF93E4E1FDE3F7
:103AA0000E94A550FF91EF91023041F4EF93FF93F4
:103AB000E8E1FDE30E94A550FF91EF91033041F44E
:103AC000EF93FF93ECE1FDE30E94A550FF91EF918E
:103AD000043041F4EF93FF93E0E2FDE30E94A55030
:103AE000FF91EF91053041F4EF93FF93E4E2FDE3A2
:103AF0000E94A550FF91EF91063041F4EF93FF93A0
:103B0000E8E2FDE30E94A550FF91EF910090740759
:103B100010907507011409F422C001E00093FF061C
:103B20000FE00093FB0607E20093FC06EF93FF9380
:103B3000EEECFCE30E94A550FF91EF9100E00093B2
:103B4000FF0600E00093FB0605E20093FC060FE78A
:103B50000093FD0600E30093FE060E94C34F01E0C0
:103B60000093FF0600E00093FB0608E30093FC06C9
:103B7000EF93FF93E2EAFCE30E94A550FF91EF91DF
:103B8000EAE2FDE304E0019FE00DF11D05910093E1
:103B9000FB0605910093FC0605910093FD06049138
:103BA0000093FE0600E00093FF060E94C34F0E94B0
:103BB0003B520E940753083009F42BC0043021F413
:103BC0001A950AF412E0CBCE023029F41395133083
:103BD00009F410E0C4CE0130D9F4103031F4009172
:103BE00073070395037000937307113031F400914C
:103BF00074070395037000937407123049F4009121
:103C0000770703950770073009F400E00093770702
:103C1000A6CE00917307000F000F000F00937307EB
:103C20000091740700937607000F000F000F0093B8
:103C300074070091770700937707A0917307E0EA74
:103C4000F0E00E942453A09174070E942453A09195
:103C500077070E9424530E94D5120E94ED540090D1
:103C6000760710907507011409F408950E948315D2
:103C700008954779726F20286465672F73656329FB
:103C80003A0041636320202020282B2F2D20672914
:103C90003A0046696C7465722020202028487A29F1
:103CA0003A004241434B2050524556204E4558540D
:103CB000204348414E4745004241434B20202020AD
:103CC0002020202020434F4E54494E55450041634B
:103CD000632043616C206F6E206578697421000059
:103CE00020202020202020202020202020202020D4
:103CF00000003235300035303000313030300000D7
:103D000032303030000032003400380031360000EC
:103D1000323536003138380039380000343200008E
:103D20003230000031300000350064007C09640945
:103D30007C1264127C1B205761726E696E672C20A6
:103D40006368616E67696E672000746865736520DB
:103D500073657474696E67202077696C6C006166A6
:103D600066656374205026492073657474696E67B4
:103D700073000FEF009343070E94905201E00093FD
:103D8000FF0604E00093000700912A0700237AF45D
:103D900002E20093FB0606E10093FC06EF93FF931B
:103DA000EAE3F2E40E94A550FF91EF910EC006E213
:103DB0000093FB0600E00093FC06EF93FF93E4E31F
:103DC000F2E40E94A550FF91EF9100912A07002391
:103DD0008AF000E00093FB0609E30093FC0602E092
:103DE00000930007EF93FF93EEE1F2E40E94A550E9
:103DF000FF91EF9100912A0700230AF40AC200E024
:103E00000093FB0601E10093FC0602E0009300072B
:103E1000EF93FF93E0E4F2E40E94A550FF91EF914D
:103E20000091320700234AF0EF93FF93E4E5F2E4B8
:103E30000E94A550FF91EF9108C0EF93FF93E0E53A
:103E4000F2E40E94A550FF91EF9100E00093FB0681
:103E50000BE10093FC06EEE1F3E400914007000F54
:103E6000E00F0027F01FA591B491FD010E94A5501D
:103E700000E0009340050DE00093410500E0009351
:103E80004205109197052091980530919905409130
:103E9000400550914105609142050E945F53709327
:103EA0004005809341052092420500E000933306CF
:103EB00008E00093340600E0009335063091400599
:103EC000409141055091420560913306709134064E
:103ED00080913506580F471F361F30934005409399
:103EE00041055093420560914005709141058091D4
:103EF000420509E00E9450536093400570934105CC
:103F00008093420500E00093FB0604E20093FC0668
:103F100002E000930007EF93FF93E8E5F2E40E94CC
:103F2000A550FF91EF910CE10093FB06B091400585
:103F3000A0914105D09142050E944A500EE20E9494
:103F4000AB50AD2FBB27B0934005A0934105D09354
:103F5000420500E00093330600E0009334060AE0D7
:103F6000009335061091400520914105309142059E
:103F70004091330650913406609135060E945F539C
:103F800070934005809341052092420500E0009324
:103F900033060AE00093340600E0009335063091C2
:103FA0004005409141055091420560913306709162
:103FB000340680913506581747073607F1F400E0BC
:103FC0000093330601E00093340600E000933506C9
:103FD0003091400540914105509142056091330672
:103FE0007091340680913506581B470B360B309381
:103FF00040054093410550934205B0914005A09182
:104000004105D09142050E944A5006E50E94AB50FE
:104010000CE30093FB0604E20093FC0602E000932D
:104020000007EF93FF93EEE5F2E40E94A550FF91A5
:10403000EF9100E30093400504E80093410503E39A
:104040000093420530919D0540919E0550919F053A
:10405000609140057091410580914205580F471FBE
:10406000361F30934005409341055093420500E0D0
:104070000093330601E00093340601E8009335060F
:104080001091400520914105309142054091330641
:1040900050913406609135060E945F53709340053D
:1040A0008093410520924205609140057091410541
:1040B0008091420509E00E9450536093400570933F
:1040C000410580934205B0914005A0914105D091F2
:1040D00042050E944A500EE20E94AB50AD2FBB2712
:1040E000B0934005A0934105D093420500E00093B2
:1040F000330600E0009334060AE000933506109181
:104100004005209141053091420540913306509180
:104110003406609135060E945F537093400580938A
:1041200041052092420500E0009333060AE0009327
:10413000340600E00093350630914005409141057A
:104140005091420560913306709134068091350696
:10415000581747073607F1F400E00093330601E0F3
:104160000093340600E000933506309140054091FD
:10417000410550914205609133067091340680915B
:104180003506581B470B360B3093400540934105CD
:1041900050934205B0914005A0914105D091420550
:1041A0000E944A5003E40E94AB5000E00093FB06DB
:1041B0000DE20093FC06EF93FF93E4E6F2E40E9425
:1041C000A550FF91EF91B0917806A0917906D0911A
:1041D0007A0600914607002312F40E944A5000E03C
:1041E0000093FB0606E30093FC06EF93FF93E2E7E0
:1041F000F2E40E94A550FF91EF91B0917B06A0914F
:104200007C06D0917D0600914607002312F40E949F
:104210004A500E943B5200270093430708952020F4
:104220002020202020202020202020202020204D61
:10423000454E5500403A3D3C00003A3F3E3C3B0075
:1042400053656C662D6C6576656C20697320000083
:104250004F4E00004F464600426174743A00546568
:104260006D703A0020526F6C6C20416E676C653A3D
:104270000000506974636820416E676C653A000005
:104280004F4B2E00414343206E6F742063616C6975
:104290006272617465642E2020004572726F723AFA
:1042A000206E6F20526F6C6C20696E7075742E00DA
:1042B0004572726F723A206E6F2050697463682085
:1042C000696E707574004572726F723A206E6F205D
:1042D0005468726F20696E7075742E004572726F2B
:1042E000723A206E6F2059617720696E7075742E56
:1042F00020004572726F723A206E6F20415558202F
:10430000696E7075742E20004572726F723A205378
:10431000616E69747920636865636B2E200080424A
:1043200084429A42B042C642DC42F24208430090C4
:104330002C071090420701200092380700903807A0
:1043400010902A07012000923807009138070023B7
:1043500042F000E00093690600936A0600936B0642
:1043600033C03091690640916A0601E0400F002792
:10437000301F3093690640936A060FE100934005B1
:1043800000E40093410500E0009342053091690686
:1043900040916A0650916B0660914005709141050D
:1043A0008091420558174707360771F400E00093E3
:1043B000690600936A0600936B06002700932A079C
:1043C0000FEF00933007089500912C07002392F51A
:1043D0000EEF009340050CE00093410500E00093D0
:1043E000420530915205409153055091540560911A
:1043F00040057091410580914205581747073607DF
:10440000ECF001E00093400504EF0093410500E06B
:104410000093420530915205409153055091540547
:1044200060914005709141058091420558174707FA
:10443000360724F400E000932D07089500912D071E
:10444000039500932D0700912D070F3F09F09FC0A2
:10445000B0915205A0915305D0915405BB232AF485
:1044600000914007003011F0089534C00FEF009321
:104470002A0701E0009360060CE20093610600E069
:10448000009362060E94031800E00093B6060093B2
:10449000B7060093B8060093B9060093BA0600E089
:1044A0000093BB060093BC060093BD060093BE06B6
:1044B0000093BF0601E00093C00600E00093C10630
:1044C00000E00093C20600E00093C30600E0009302
:1044D000C4060CC0002700932A0700E00093600682
:1044E00006E90093610600E0009362060FEF009377
:1044F0003F070FEF0093300703E000935D0600E2F3
:1045000000935E0600E000935F0600E000936906FA
:1045100000936A0600936B0601E00093400504EFE8
:104520000093410500E00093420530914905409118
:104530004A0550914B05609140057091410580916D
:104540004205581747073607D4F40EEF009340058D
:104550000CE00093410500E00093420530914905CD
:1045600040914A0550914B0560914005709141057D
:10457000809142055817470736072CF008C00FEF07
:104580000093330704C000270093330700C0089549
:1045900010E4A0E0B5E0E4E0F0E00E943C530D93AD
:1045A00031961A95D1F7E4E4F0E00E941F270091BC
:1045B00040050093B505009141050093B6050091B3
:1045C00042050093B7050E941F270E942F270091E4
:1045D00040050093BE05009141050093BF05009181
:1045E00042050093C0050E941F270E940F270091DB
:1045F00040050093C705009141050093C80500914F
:1046000042050093C9050E941F270E942F27009191
:1046100040050093D005009141050093D10500911C
:1046200042050093D2050E941F2700914005009388
:10463000B805009141050093B9050091420500932A
:10464000BA050E941F270E942F2700914005009362
:10465000C105009141050093C205009142050093F8
:10466000C3050E941F270E940F2700914005009359
:10467000CA05009141050093CB05009142050093C6
:10468000CC050E941F270E942F2700914005009310
:10469000D305009141050093D40500914205009394
:1046A000D5050E941F27009140050093BB0500918E
:1046B00041050093BC05009142050093BD050E9491
:1046C0001F270E942F27009140050093C4050091E9
:1046D00041050093C505009142050093C6050E945F
:1046E0001F270E940F27009140050093CD050091E0
:1046F00041050093CE05009142050093CF050E942D
:104700001F270E942F27009140050093D605009196
:1047100041050093D705009142050093D80518E0A4
:10472000E0E0F5E00581889401FD0894A795889460
:1047300000FD0894B79538961A95A1F7A093240721
:10474000B093250708E0009340050CEA009341056B
:1047500000E00093420500E000933B07EF93FF93D6
:10476000309140054091410550914205E3E0F6E06B
:1047700060913B0703E0609FE00DF11D3193419391
:104780005193FF91EF9100913B07039500933B07F5
:1047900000913B07083011F7EAE7F0E00E941F277D
:1047A00000E0009333060CE20093340606E6009323
:1047B0003506109140052091410530914205409108
:1047C000330650913406609135060E945F53709312
:1047D000D9058093DA052092DB05E6E8F0E00E9437
:1047E0001F270E940F27009140050093DC050091D0
:1047F00041050093DD05009142050093DE05E8E8E0
:10480000F0E00E941F270E940F27009140050093AF
:10481000DF05009141050093E005009142050093FA
:10482000E105EAE8F0E00E941F270E940F270091AF
:1048300040050093E205009141050093E3050091D6
:1048400042050093E405ECE8F0E00E941F270E9477
:104850000F27009140050093E50500914105009365
:10486000E605009142050093E705E2E8F0E00E94CA
:104870001F2700E00093330604E60093340600E0AF
:104880000093350630913306409134065091350639
:10489000609140057091410580914205581B470B7E
:1048A000360B30935A0640935B0650935C0660913A
:1048B0005A0670915B0680915C0607E00E94505397
:1048C00060935A0670935B0680935C06E2E7F0E023
:1048D0000E941F2700914005009336060091410574
:1048E000009337060091420500933806E4E7F0E0B4
:1048F0000E941F2700E0009333060AE0009334066D
:1049000000E000933506109140052091410530915B
:1049100042054091330650913406609135060E945D
:104920005F537093390680933A0620923B06ECE77A
:10493000F0E00E941F270091400500933C06009183
:10494000410500933D060091420500933E06EEE7C7
:10495000F0E00E941F270E942F270091400500933E
:104960003F060091410500934006009142050093E7
:104970004106E0E8F0E00E941F2700E000933306C4
:1049800003E00093340600EF0093350610914005D4
:1049900020914105309142054091330650913406F3
:1049A000609135060E945F537093420680934306E0
:1049B00020924406E4E8F0E00E941F276091400541
:1049C000709141058091420508E00E945053609328
:1049D0004005709341058093420500914005009386
:1049E000450600914105009346060091420500935B
:1049F0004706E6E7F0E00E941F27609140057091AE
:104A000041058091420503E00E94505360934005A8
:104A10007093410580934205009140050093630621
:104A200000914105009364060091420500936506DC
:104A3000E8E7F0E00E941F27609140057091410572
:104A40008091420503E00E945053609340057093AB
:104A50004105809342050091400500936606009150
:104A60004105009367060091420500936806E7E957
:104A7000F0E00E941F270E940F270091400500933D
:104A80008A060091410500938B0600914205009330
:104A90008C06E9E9F0E00E941F270E944D27009153
:104AA000400500938D060091410500938E0600910C
:104AB000420500938F06EBE9F0E00E941F270E9459
:104AC0000F27009140050093900600914105009347
:104AD00091060091420500939206EDE9F0E00E94F4
:104AE0001F270E944D2700914005009393060091D7
:104AF0004105009394060091420500939506EDE56B
:104B0000F0E00E942853B0938505A0938605D093CA
:104B100087050E942853B0938805A0938905D093F8
:104B20008A050E942853B0938B05A0938C05D093DF
:104B30008D05E3E9F0E00E943C5300933107E4E97E
:104B4000F0E00E943C5300932807E5E9F0E00E9462
:104B50003C5300934207E6E9F0E00E943C53009387
:104B6000440701E00093270705E0009326070FEFB5
:104B700000933007002700934307002700932A077C
:104B8000002700932B070AEF0093230700E0009310
:104B9000360700E00093690600936A0600936B06EF
:104BA00003E000939A050FEF00939B0500E000934C
:104BB0009C0500E000936006009361060093620686
:104BC00000E000935D0600935E0600935F0600E040
:104BD00000936F06009370060093710600E0009347
:104BE00072060093730600937406002700933F0734
:104BF000002700933E0700270093450700270093F6
:104C0000460700E00093750600937606009377064A
:104C100000E00093B6060093B7060093B806009331
:104C2000B9060093BA0600E00093BB060093BC06E9
:104C30000093BD060093BE060093BF0601E00093FB
:104C4000C00600E00093C10600E00093C20600E049
:104C50000093C30600E00093C40600E000937806CA
:104C60000093790600937A0600E000937B06009398
:104C70007C0600937D0600917407087106950695E1
:104C800006950330ECF5023044F501309CF400E069
:104C900000939C0600E800939D0600E000939E06AA
:104CA00000E000939F0600E00093A00604E5009357
:104CB000A10638C000E000939C0600E400939D0626
:104CC00000E000939E0600E000939F0600E0009342
:104CD000A00608EA0093A10625C000E000939C0608
:104CE00000E200939D0600E000939E0600E0009322
:104CF0009F0601E00093A00601E50093A10612C003
:104D000000E000939C0600E100939D0600E0009304
:104D10009E0600E000939F0602E00093A00603EACF
:104D20000093A106009173070871069506950695F4
:104D300003302CF40230E4F401309CF54BC00BE05E
:104D40000093A2060BE20093A30600E80093A406DA
:104D500009EF0093A50607EE0093A60600E0009376
:104D6000790504E000937A0500E000937B054AC0D2
:104D700005E00093A20605E90093A30600EC00936A
:104D8000A4060CE70093A50603EF0093A60600E037
:104D90000093790502E000937A0500E000937B051B
:104DA00031C002E00093A2060AEC0093A30600EED5
:104DB0000093A4060EE30093A50609E70093A60658
:104DC00000E00093790501E000937A0500E000938C
:104DD0007B0518C001E00093A20605E60093A30638
:104DE00000E70093A4060FE10093A5060CE30093EF
:104DF000A60600E00093790500E000937A0500E83C
:104E000000937B05EFE9F0E00E943C53002322F081
:104E100001E00093400708950E946B270895609178
:104E20004005709141058091420504E00E94505375
:104E300060934005709341058093420508950E9458
:104E40003C533196A02F0E943C533196B02FDD2762
:104E5000B0934005A0934105D0934205089500E02A
:104E60000093330601E70093340609EA0093350600
:104E70001091400520914105309142054091330643
:104E800050913406609135060E945F53709340053F
:104E90008093410520924205089500E00093330677
:104EA0000CE20093340606E60093350610914005A7
:104EB00020914105309142054091330650913406CE
:104EC000609135060E945F537093400580934105C1
:104ED0002092420508950E94905201E00093FF063F
:104EE00002E000930007B091D905A091DA05D091B6
:104EF000DB05C0E0D0E0E8E7F3E00E94DC2808F43E
:104F0000C9C0B0913C06A0913D06D0913E06C0E0DC
:104F1000D0E0E5EFF1E00E94DC2808F4BBC0B091DE
:104F20003F06A0914006D0914106C0E0D0E0E3E505
:104F3000FDE00E94DC2808F4ADC0B0916105A091AD
:104F40006205D0916305C0E9D1E0E6E7F2E00E9496
:104F5000DC2808F4BCC0B0916405A0916505D0912F
:104F60006605C0E9D1E0E6E7F2E00E94DC2808F43B
:104F7000AEC0B0916705A0916805D0916905C0E900
:104F8000D1E0E6E7F2E00E94DC2808F4A0C0B0918E
:104F90008505A0918605D0918705C2ECD1E0E2E5B8
:104FA000F3E00E94DC2808F492C0B0918805A0913B
:104FB0008905D0918A05C2ECD1E0E2E5F3E00E94D8
:104FC000DC2808F484C0B0918B05A0918C05D091A9
:104FD0008D05C2ECD1E0E2E5F3E00E94DC2808F4A4
:104FE00076C00E945C4D0E945C4DB0915805A09126
:104FF0005905D0915A05C4E6D0E0E4E8F3E00E94F8
:10500000DC2808F481C0B0915B05A0915C05D091CB
:105010005D05C4E6D0E0E4E8F3E00E94DC2808F493
:1050200073C0B0915E05A0915F05D0916005C4E6A4
:10503000D0E0E4E8F3E00E94DC2808F465C0B09119
:105040007C05A0917D05D0917E05C4E6D0E0E4E822
:10505000F3E00E94DC2808F457C0B0917F05A091CE
:105060008005D0918105C4E6D0E0E4E8F3E00E9439
:10507000DC2808F449C0B0918205A0918305D09145
:105080008405C4E6D0E0E4E8F3E00E94DC2808F4FC
:105090003BC0089500E00093FB060FE00093FC0680
:1050A000EF93FF93ECECF1E50E94A550FF91EF9197
:1050B00000E00093FB0608E10093FC06EF93FF93EA
:1050C000E0EEF1E50E94A550FF91EF9139C000E0BC
:1050D0000093FB060FE00093FC06EF93FF93E2E2E0
:1050E000F2E50E94A550FF91EF9100E00093FB06CE
:1050F00008E10093FC06EF93FF93E6E3F2E50E94DC
:10510000A550FF91EF911CC000E00093FB060FE05B
:105110000093FC06EF93FF93EAE4F2E50E94A550AA
:10512000FF91EF9100E00093FB0608E10093FC067D
:10513000EF93FF93E6E3F2E50E94A550FF91EF9114
:1051400007E00093400700E00093FB0608E20093AD
:10515000FC06EF93FF93E6EFF1E50E94A550FF9167
:10516000EF9103E20093FB0601E00093FC06EF934E
:10517000FF93EAE5F2E50E94A550FF91EF9100E070
:105180000093FB0609E30093FC06EF93FF93ECE02A
:10519000F2E50E94A550FF91EF910E943B52299A9F
:1051A000D7E2C0E00E94E852DA95D9F729980E9428
:1051B00007530130E1F70895AC17BD072CF0AE1787
:1051C000BF0714F488940895089408954F6E6520DD
:1051D0006F72206D6F72652073657474696E6700FD
:1051E0006973206F75747369646520697473206CCA
:1051F000696D69747300436865636B20796F7572BC
:105200002073657474696E67732E0000202020205F
:10521000202020202020202020434F4E54494E554E
:10522000450053656E736F722063616C69627261D1
:1052300074696F6E000064617461206F7574206F13
:1052400066206C696D6974732E0053656E736F729E
:10525000207261772064617461005741524E494E5B
:105260004721000008950E94905201E00093FF063C
:1052700002E00093000700E00093FB0600E00093CB
:10528000FC06EF93FF93ECEAF9E50E94A550FF912D
:10529000EF91B0916105A0916205D09163050E94E4
:1052A0004A5000E00093FB060090FC0608E0000E68
:1052B0000092FC06EF93FF93ECEBF9E50E94A550FA
:1052C000FF91EF91B0916405A0916505D0916605BD
:1052D0000E944A5000E00093FB060090FC0608E0A4
:1052E000000E0092FC06EF93FF93ECECF9E50E94B0
:1052F000A550FF91EF91B0916705A0916805D091FD
:1053000069050E944A5000E00093FB060090FC06ED
:1053100008E0000E0092FC06EF93FF93EAEDF9E53A
:105320000E94A550FF91EF91B0918505A09186054F
:10533000D09187050E944A5000E00093FB06009040
:10534000FC0608E0000E0092FC06EF93FF93E6EEE9
:10535000F9E50E94A550FF91EF91B0918805A091C9
:105360008905D0918A050E944A5000E00093FB060F
:105370000090FC0608E0000E0092FC06EF93FF93FD
:10538000E2EFF9E50E94A550FF91EF91B0918B05F6
:10539000A0918C05D0918D050E944A5000E00093A9
:1053A000FB060090FC0608E0000E0092FC06EF935E
:1053B000FF93EEEFF9E50E94A550FF91EF91B091B8
:1053C000D905A091DA05D091DB050E944A5000E092
:1053D0000093FB060090FC0608E0000E0092FC061D
:1053E000EF93FF93ECE0FAE50E94A550FF91EF9157
:1053F000B0914206A0914306D09144060E944A50C3
:105400000E943B520E9407530E94905200E000937A
:10541000FB0600E00093FC06EF93FF93EEE1FAE554
:105420000E94A550FF91EF9100E00093400504E633
:105430000093410500E00093420510914005209142
:1054400041053091420540915A0650915B066091AA
:105450005C060E945F537093400580934105209243
:105460004205B0914005A0914105D09142050E94AE
:105470004A5000E00093FB060090FC0608E0000E96
:105480000092FC06EF93FF93ECE2FAE50E94A55030
:10549000FF91EF91B091B606A091B706D091B806F2
:1054A000C091B9063FD300E00093FB060090FC06D4
:1054B00008E0000E0092FC06EF93FF93E6E3FAE5A6
:1054C0000E94A550FF91EF91B091BB06A091BC0640
:1054D000D091BD06C091BE0625D300E00093FB0627
:1054E0000090FC0608E0000E0092FC06EF93FF938C
:1054F000E0E4FAE50E94A550FF91EF91B091C0065B
:10550000A091C106D091C206C091C3060BD300E0A2
:105510000093FB060090FC0608E0000E0092FC06DB
:10552000EF93FF93EAE4FAE50E94A550FF91EF9113
:10553000B0914806A0914906D0914A060E944A506F
:1055400000E00093FB060090FC0608E0000E0092CD
:10555000FC06EF93FF93EAE5FAE50E94A550FF9160
:10556000EF91B0914B06A0914C06D0914D060E9450
:105570004A5000E00093FB060090FC0608E0000E95
:105580000092FC06EF93FF93EAE6FAE50E94A5502D
:10559000FF91EF91B0919705A0919805D091990551
:1055A0000E944A5000E00093FB060090FC0608E0D1
:1055B000000E0092FC06EF93FF93EAE7FAE50E94E3
:1055C000A550FF91EF91B091C506A091C606D0916C
:1055D000C706C091C806A6D20E943B520E9407533C
:1055E0000E94905200E00093FB0600E00093FC064E
:1055F000EF93FF93E6E8FAE50E94A550FF91EF9143
:1056000003E40093F7060E94D94DB02F04E4009301
:10561000F7060E94D94DA02FDD270E944A5000E0D6
:105620000093FB060090FC0608E0000E0092FC06CA
:10563000EF93FF93E2E9FAE50E94A550FF91EF9105
:1056400005E40093F7060E94D94DB02F06E40093BD
:10565000F7060E94D94DA02FDD270E944A5000E096
:105660000093FB060090FC0608E0000E0092FC068A
:10567000EF93FF93EEE9FAE50E94A550FF91EF91B9
:1056800007E40093F7060E94D94DB02F08E4009379
:10569000F7060E94D94DA02FDD270E944A5000E056
:1056A0000093FB060090FC0608E0000E0092FC064A
:1056B000EF93FF93EAEAFAE50E94A550FF91EF917C
:1056C0000BE30093F7060E94D94DB02F0CE3009333
:1056D000F7060E94D94DA02FDD270E944A5000E016
:1056E0000093FB060090FC0608E0000E0092FC060A
:1056F000EF93FF93E6EBFAE50E94A550FF91EF913F
:105700000DE30093F7060E94D94DB02F0EE30093EE
:10571000F7060E94D94DA02FDD270E944A5000E0D5
:105720000093FB060090FC0608E0000E0092FC06C9
:10573000EF93FF93E2ECFAE50E94A550FF91EF9101
:105740000FE30093F7060E94D94DB02F00E40093B9
:10575000F7060E94D94DA02FDD270E944A5000E095
:105760000093FB060090FC0608E0000E0092FC0689
:10577000EF93FF93EEECFAE50E94A550FF91EF91B5
:1057800001E40093F7060E94D94DB02F02E4009384
:10579000F7060E94D94DA02FDD270E944A500E9493
:1057A0003B52D5E0C0E00E94E852DA95D9F70E945A
:1057B000F652003011F40C94F02A0E9490520E948C
:1057C000A34201E00093FF0602E00093000700E01F
:1057D0000093FB0600E00093FC06EF93FF93EAEDD5
:1057E000FAE50E94A550FF91EF9100E00093FB06BF
:1057F0000CE00093FC06A0916007B0E0C0E00E94BE
:105800004A500EE10093FB06A0916107B0E0C0E0B2
:105810000E944A5000E00093FB0605E10093FC065D
:10582000A0916207B0E0C0E00E944A500EE10093F0
:10583000FB06A0916307B0E0C0E00E944A5006E476
:105840000093FB06A0916407B0E0C0E00E944A50BC
:1058500004E60093FB06A0916507B0E0C0E00E945B
:105860004A5000E00093FB060EE10093FC06A09175
:105870006607B0E0C0E00E944A500EE10093FB06CC
:10588000A0916707B0E0C0E00E944A5006E4009390
:10589000FB06A0916807B0E0C0E00E944A5004E611
:1058A0000093FB06A0916907B0E0C0E00E944A5057
:1058B00000E00093FB0607E20093FC06A0916A0754
:1058C000B0E0C0E00E944A500EE10093FB06A091B8
:1058D0006B07B0E0C0E00E944A5006E40093FB066C
:1058E000A0916C07B0E0C0E00E944A5004E600932B
:1058F000FB06A0916D07B0E0C0E00E944A5000E0B6
:105900000093FB0600E30093FC06A0916E07B0E055
:10591000C0E00E944A500EE10093FB06A0916F0781
:10592000B0E0C0E00E944A500E943B52D5E0C0E087
:105930000E94E852DA95D9F70E94F652003009F039
:1059400001C03BCFD5E0C0E00E94E852DA95D9F71C
:105950000E9490520E94B23201E00093FF0602E0E2
:105960000093000700E00093FB060AE00093FC06AA
:1059700000E00093FB060090FC0608E0000E009299
:10598000FC06B091A206A091A306D091A406C091F6
:10599000A506F091A6060E949B2D0E943B520E94F4
:1059A000F652003009F008950C94A82C4779726FD4
:1059B000526F6C6C5A65726F3A2000004779726FB3
:1059C00050697463685A65726F3A20004779726F44
:1059D0005961775A65726F3A2000416363585A657E
:1059E000726F3A200000416363595A65726F3A2022
:1059F00000004163635A5A65726F3A200000457394
:105A0000634C6F774C696D69743A2000426174741D
:105A1000416C61726D566F6C746167653A005365D5
:105A200072766F46696C7465723A200056656374CD
:105A30006F72583A2000566563746F72593A2000AD
:105A4000566563746F725A3A2000416363416E6712
:105A50006C65526F6C6C3A200000416363416E6765
:105A60006C6550697463683A2000426174746572B1
:105A700079566F6C746167653A00566563746F722E
:105A80004C656E3A20004779726F585261773A2020
:105A900000004779726F595261773A2000004779C8
:105AA000726F5A5261773A20000041636358526125
:105AB00077203A20000041636359526177203A20F1
:105AC00000004163635A526177203A200000546518
:105AD0006D70526177203A200000536174656C6CE0
