S00B00004B4B322E7372656351
S11300000C9422100C94920E0C94530E0C94D10E5A
S11300100C9448100C94930F0C9448100C94580FA3
S11300200C9448100C9448100C9448100C944810EC
S11300300C9448100C94AC0D0C94FF0D0C94A41467
S11300400C9448100C9448100C945D0D0C944810BA
S11300500C9448100C9448100C9448100C944810BC
S11300600C942E0D0C9448100C9448100C944810C9
S11300700C94FA0F0C94CE0F0C944810010204084F
S113008010204080A2A0C840A6A42F248120AF0045
S113009040100408020120800C1023150000000009
S11300A0000000000000000000000000000000004C
S11300B00000000000000000000000007C00FF338E
S11300C0FF337C000000000000000000000000007E
S11300D000003C003C00000000003C003C0000002C
S11300E00000000000000002101E901FF0037E02BA
S11300F01E1E901FF0037E021E0010000000000070
S11301007804FC0CCC0CFF3FFF3FCC0CCC0F8807D1
S113011000000000000000303838381C380E00079A
S11301208003C001E038703838381C00000000003B
S1130130001FB83FFC31C621E2373E1E1C1C0036AE
S113014000220000000000000000000027003F0023
S11301501F0000000000000000000000000000007C
S11301600000F003FC0FFE1F0738012001200000EF
S113017000000000000000000000012001200738FA
S1130180FE1FFC0FF0030000000000000000000050
S1130190980CB80EE003F80FF80FE003B80E980CB3
S11301A00000000000000000800180018001F00FC9
S11301B0F00F8001800180010000000000000000B9
S11301C00000000000B800F8007800000000000003
S11301D00000000000000000800180018001800117
S11301E08001800180018001000000000000000007
S11301F00000000000380038003800000000000053
S11302000000000000000018001C000E000780031E
S1130210C001E000700038001C000E000000F80768
S1130220FE1F061E03338331C330633033301E1880
S1130230FE1FF8070000000000000C300C300E30E8
S1130240FF3FFF3F003000300030000000001C3052
S11302501E38073C033E03378333C331E330773022
S11302603E301C3000000C0C0E1C0738C330C33069
S1130270C330C330C330E7397E1F3C0E0000C003D7
S1130280E003700338031C030E030703FF3FFF3F23
S11302900003000300003F0C7F1C633863306330AD
S11302A0633063306330E338C31F830F0000C00F33
S11302B0F01FF839DC30CE30C730C330C330C33917
S11302C0801F000F00000300030003000330033C01
S11302D0030FC303F3003F000F0003000000000FEF
S11302E0BC1FFE39E730C330C330C330E730FE39BA
S11302F0BC1F000F00003C007E00E730C330C33059
S1130300C338C31CC30EE707FE03FC000000000053
S113031000000000701C701C701C00000000000035
S1130320000000000000000000000000709C70FC51
S1130330707C0000000000000000000000000000CD
S1130340C000E001F00338071C0E0E1C0738033010
S11303500000000000000000600660066006600601
S1130360600660066006600660060000000000008B
S1130370033007380E1C1C0E3807F003E001C000E0
S11303800000000000001C001E000700030083376B
S1130390C337E30077003E001C0000000000F80FA4
S11303A0FE1F0718F333FB371B36FB37FB370736C3
S11303B0FE03F80100000038003FE007FC061F06BA
S11303C01F06FC06E007003F003800000000FF3F66
S11303D0FF3FC330C330C330C330E730FE39BC1FE6
S11303E0000F00000000F003FC0F0E1C0738033060
S11303F00330033007380E1C0C0C00000000FF3FD4
S1130400FF3F033003300330033007380E1CFC0F6A
S1130410F00300000000FF3FFF3FC330C330C33090
S1130420C330C330C3300330033000000000FF3F4B
S1130430FF3FC300C300C300C300C300C3000300E5
S1130440030000000000F003FC0F0E1C073803300B
S1130450C330C330C330C73FC63F00000000FF3F76
S1130460FF3FC000C000C000C000C000C000FF3F8C
S1130470FF3F000000000000000003300330FF3F96
S1130480FF3F033003300000000000000000000EB6
S1130490001E003800300030003000300038FF1FEC
S11304A0FF0700000000FF3FFF3FC000E001F00332
S11304B038071C0E0E1C0738033000000000FF3FF5
S11304C0FF3F00300030003000300030003000309A
S11304D0003000000000FF3FFF3F1E007800E001F5
S11304E0E00178001E00FF3FFF3F00000000FF3FD7
S11304F0FF3F0E003800F000C0030007001CFF3F60
S1130500FF3F00000000F003FC0F0E1C073803300F
S1130510033007380E1CFC0FF00300000000FF3FFF
S1130520FF3F83018301830183018301C701FE002F
S11305307C0000000000F003FC0F0E1C07380330A1
S11305400336073E0E1CFC3FF03300000000FF3F63
S1130550FF3F8301830183038307830FC71DFE3895
S11305607C30000000003C0C7E1CE738C330C330F4
S1130570C330C330C7398E1F0C0F000000000000C9
S1130580030003000300FF3FFF3F030003000300D9
S1130590000000000000FF07FF1F0038003000309B
S11305A0003000300038FF1FFF0700000000070084
S11305B03F00F801C00F003E003EC00FF8013F00AD
S11305C0070000000000FF3FFF3F001C00068003FF
S11305D080030006001CFF3FFF3F000000000330C3
S11305E00F3C1C0E3003E001E00130031C0E0F3CF5
S11305F003300000000003000F003C00F000C03F87
S1130600C03FF0003C000F00030000000000033076
S1130610033C033E0333C331E33033301F300F3028
S113062003300000000000000000FF3FFF3F0330E4
S113063003300330033000000000000000000E000F
S11306401C0038007000E000C00180030007000EA9
S1130650001C0018000000000000033003300330C9
S11306600330FF3FFF3F0000000000000000600077
S1130670700038001C000E0007000E001C0038003B
S113068070006000000000C000C000C000C000C0D6
S113069000C000C000C000C000C000C00406351582
S11306A0000000000000170000030003001F0A1FE1
S11306B000143F0A00090412001A151E0003010069
S11306C0000E110000110E0000150E1500040E049A
S11306D0003010000004040400001000001804039B
S11306E0001E110F00121F10001915120011150A17
S11306F00006041F00171509000E150800011D0748
S1130700000A150A0002150E00001400003014003F
S113071000040A110014141400110A040001150243
S1130720001F1117001E051E001F150A000E1111CF
S1130730001F110E001F1511001F0501000E111DD1
S1130740001F041F00111F110008100F001F041BBD
S1130750001F1010001F061F001F021F000E110EA5
S1130760001F0502000E191E001F051A0016150DA4
S113077000011F01001F101F000F100F001F0C1F8E
S1130780001B041B00031C0300191513001F110098
S11307900003041800111F00000201022020202081
S11307A006083C150000000000000000065F06007B
S11307B000070300070300247E247E2400242B6A00
S11307C01200006313086463003649562050000089
S11307D00703000000003E4100000000413E00000D
S11307E000083E1C3E080008083E08080000E060BF
S11307F000000008080808080000606000000020ED
S113080010080402003E5149453E0000427F40006A
S113081000625149494600224949493600181412D8
S11308207F10002F49494931003C4A4949300001B1
S11308307109050300364949493600064949291E0C
S113084000006C6C00000000EC6C00000008142236
S1130850410000242424242400004122140800021E
S113086001590906003E415D551E007E1111117E9D
S1130870007F49494936003E41414122007F4141C0
S1130880413E007F49494941007F09090901003E71
S11308904149497A007F0808087F0000417F4100F0
S11308A000304040403F007F08142241007F404018
S11308B04040007F0204027F007F0204087F003E64
S11308C04141413E007F09090906003E4151215E34
S11308D0007F090919660026494949320001017F50
S11308E00101003F4040403F001F2040201F003FC7
S11308F0403C403F00631408146300070870080775
S113090000714945430000007F4141000002040892
S11309101020000041417F00000402010204808095
S11309208080808000000307000000205454547825
S1130930007F444444380038444444280038444444
S1130940447F00385454540800087E0909000018F4
S1130950A4A4A47C007F040478000000007D40006F
S1130960004080847D00007F102844000000007F48
S11309704000007C04180478007C040478000038EB
S11309804444443800FC444444380038444444FC5F
S113099000447844040800085454542000043E449D
S11309A02400003C40207C00001C2040201C003C13
S11309B06030603C006C10106C00009CA0603C0037
S11309C0006454544C0000083E414100000000778C
S11309D00000000041413E08000201020100003C09
S11309E02623263C05051F1111111F0503020702CA
S11309F0020209030000000002020207020909388A
S1130A0000FE00FE00FF01FF01FF01FE00FE0038B2
S1130A10000808060E1E3E3E1E0E06080830383C2E
S1130A203E3E3C383060F005F005F0054C04F0051E
S1130A30F005F005F0050102040305060708180295
S1130A402402350263026C02FE020032641914327D
S1130A506419143214320A0200010101001E1E320C
S1130A605A0A20001E003264140000000000000036
S1130A700000000000000000000000000000000072
S1130A800000000000000000000000000000000062
S1130A900000000000000000000000000000320020
S1130AA03200010203040505060708090A0B0C0DB0
S1130AB00E0F10111213131415161718191A1B1CE4
S1130AC01D1F2021222324252627292A2B2C2E2FC3
S1130AD0303233353638393B3D3F414345484C503D
S1130AE05A43616C6962726174696E67204553434D
S1130AF073004B4B322D436F707465720062792022
S1130B004F6C6976657220536368756C7A0056651C
S1130B107273696F6E20302E326200500E2F0E14E5
S1130B200EF90DD20DB70D9C0D690D360D0F0DE8A4
S1130B300CB50C820C5B0C280C010CCE0BB30B9285
S1130B400B7D0B620B470B6B0E0464B9470000016D
S1130B506447470000017800A66400017800A69C61
S1130B600001720E0464B9476400016447479C00A5
S1130B700164009C64000164009C9C0001750E03E8
S1130B806400000000010032320000020032CE0096
S1130B900002810E056400000000010064000000F2
S1130BA00200640000000200006400000200000073
S1130BB0640002910E04640000000001006400005F
S1130BC00002000064000002000000640002A10EA4
S1130BD0086464476400016451189C0001643DE8A2
S1130BE0640001642AB99C000164D6B964000164FC
S1130BF0C3E89C000164AF18640001649C479C0036
S1130C0001A40E066464476400016447009C00016B
S1130C10642AB964000164D6B99C000164B9006413
S1130C200001649C479C0001A70E086447476400C8
S1130C30016447189C00016447E86400016447B9F3
S1130C409C000164B9B964000164B9E89C000164C2
S1130C50B91864000164B9479C0001AA0E066447F0
S1130C60476400016447009C00016447B9640001C3
S1130C7064B9B99C000164B90064000164B9479C7B
S1130C800001AD0E0864265C640001645C269C00CF
S1130C9001645CDA6400016426A49C000164DAA4A3
S1130CA064000164A4DA9C000164A4266400016465
S1130CB0DA5C9C0001BA0E086400646400016447B5
S1130CC0479C00016464006400016447B99C00010E
S1130CD064009C64000164B9B99C0001649C0064D4
S1130CE0000164B9479C0001C70E066432576400D2
S1130CF0016464009C00016432A964000164CEA90B
S1130D009C0001649C0064000164CE579C0001D4E3
S1130D100E066400646400016457329C0001645749
S1130D20CE64000164009C9C000164A9CE640001AF
S1130D3064A9329C0001E10E0864B94764000164AF
S1130D40B9479C00016447476400016447479C001D
S1130D50016447B96400016447B99C000164B9B9EE
S1130D6064000164B9B99C0001E60E08640064647F
S1130D7000016400649C0001646400640001646414
S1130D80009C000164009C64000164009C9C0001C0
S1130D90649C00640001649C009C0001EB0E0464EC
S1130DA0B9476400016447479C00016447B9640083
S1130DB00164B9B99C0001FA0E0464006464000182
S1130DC06464009C000164009C640001649C009CB9
S1130DD00001090F0664A93264000164A9329C0071
S1130DE0016457326400016457329C000164009C22
S1130DF064000164009C9C00010C0F0464A932008F
S1130E00000164573200000164009C0000010000EE
S1130E1000640002160F04646400000001649C0076
S1130E2000000100006464000200009C64000221D0
S1130E300F0564000000000100640064000200006B
S1130E4064640002009C0064000200009C640002D0
S1130E50340F046400006400016400009C0001007D
S1130E606400000002000064000002562D54616911
S1130E706C00593400466C79696E672057696E6757
S1130E8000416972706C616E652032532041696C57
S1130E9000416972706C616E652031532041696C48
S1130EA0005638005636004838004836004F637400
S1130EB06F436F707465722078004F63746F436F73
S1130EC070746572202B0048657861436F70746597
S1130ED07220780048657861436F70746572202BC6
S1130EE00058382078005838202B005175616472FE
S1130EF06F436F7074657220780051756164726F0E
S1130F00436F70746572202B005936005472694324
S1130F106F70746572004475616C436F70746572B0
S1130F200053696E676C65436F7074657220314D50
S1130F302034530053696E676C65436F7074657237
S1130F4020324D20325300526561647920666F72FD
S1130F5020646570617274757265210020696E7019
S1130F607574005258006E6F2000EF18E918DE18EF
S1130F70E418E918EF18D918D418CD18D118CD18D9
S1130F80D118024E93060000C80005034E940600D3
S1130F9000C80005044E95060000C80005054E96DD
S1130FA0060000C80005006697060000140004014E
S1130FB06699060000FA000402669A0600001E0004
S1130FC00403669B060000FA000404669C06000005
S1130FD064000400369D060000FA000501369E06F2
S1130FE00000FA00050360A106D3FF2D000504608C
S1130FF0A206D3FF2D00050254D30680FF7F00050F
S11310000354D40680FF7F00050454D50680FF7F77
S113101000050554D60680FF7F0005401A321A24C5
S11310201A161A071AF319DE19D219BF19A119B120
S11310301991198419721960194C195A193411BD6E
S11310402200001E114F1D0000D7104222E3171981
S1131050117B1FB217D7103C1E3C17D7103D22FF3F
S113106016D7103822AA16D71033227916D7102E85
S113107022331619114A1F7C170311DC1D76150340
S1131080117A1C0015D7106221000003119A1D006B
S113109000D710B5207E11B6105B1D00001E112173
S11310A01D0000ED105A1C000019111A1F4A1143AB
S11310B0414E43454C004241434B20204E45585439
S11310C000434C522020444F574E2020205550209E
S11310D02020444F4E45004241434B205052455638
S11310E0204E455854204348414E47450043414E05
S11310F043454C202020202020202020202020593F
S11311004553004241434B20202020202020202012
S1131110434F4E54494E5545004241434B004241D2
S1131120434B20205550202020444F574E20454EFD
S11311305445520020202020202020202020202040
S113114020202020204D454E55004D697865724978
S11311506E6465783A0A4368616E6E656C303A0A6B
S11311604368616E6E656C313A0A4368616E6E6500
S11311706C323A0A4368616E6E656C333A005468A7
S1131180726F74746C653A202020202020204368FC
S11311903A0A41696C65726F6E3A0A456C6576610C
S11311A0746F723A0A5275646465723A0A4F6666DD
S11311B07365743A0A547970653A202020202020FF
S11311C020526174653A0043616C696272617469AA
S11311D06F6E206661696C65642E0A0A4D616B65E9
S11311E020737572652074686520737469636B730A
S11311F00A6172652072656C656173656420616E55
S1131200640A7468726F74746C652069732069640D
S11312106C652E000A436865636B207468652063FF
S11312206F72726563740A7369676E616C732066AA
S1131230726F6D0A72656365697665722E0A4F6E08
S113124065206F72206D6F7265207369676E616CC3
S1131250730A617265206D697373696E672E00523B
S1131260656C6561736520737469636B73206F6E5D
S1131270207468650A7472616E736D697474657242
S113128020616E6420736574200A7468726F7474CC
S11312906C6520746F2069646C652E0A0A5072654F
S11312A0737320434F4E54494E554520746F0A635F
S11312B0616C6962726174652E0000157514FB130C
S11312C08C131313C6122020274D696E696D756D3A
S11312D0207468726F74746C65270A2020696E200C
S11312E074686520274D6973632E205365742D0A35
S11312F0202074696E6773206D656E752E0A0A204E
S113130020596F7520617265206E6F7720646F6E4F
S1131310652100202063616C6962726174696F6E7B
S113132020736F756E642E0A31322052656C6561CC
S11313307365207468650A2020627574746F6E7317
S11313402E0A313320436865636B20696620746814
S113135065206D6F742D0A20206F72732073746181
S11313607274206174207468650A202073616D654D
S11313702074696D652E204966206E6F742C0A20D6
S11313802061646A7573742074686500392057613C
S1131390697420666F722074686520455343730A2C
S11313A0202066756C6C2D7468726F74746C652083
S11313B063616C692D0A202062726174696F6E200A
S11313C0736F756E642E0A3130205365742074680F
S11313D065207468726F74746C650A2020746F20C1
S11313E069646C652E0A3131205761697420666F17
S11313F072207468652069646C65003620536574D6
S113140020746865207468726F74746C6520746FDE
S11314100A202066756C6C2E0A372050726573732F
S113142020646F776E20627574746F6E730A202067
S11314303120616E64203420616E64206B656570B8
S11314400A20207468656D20646F776E20756E7451
S1131450696C207468650A20206C6173742073744D
S113146065702E0A38205475726E206F6E20706F6E
S11314707765722E0033204D656D6F72697A652031
S113148074686520726573740A20206F662074681E
S11314906520696E737472756374696F6E730A2064
S11314A0206265636175736520746865206E657874
S11314B0740A20207374657020697320746F20741B
S11314C075726E206F66660A202074686520706FDE
S11314D07765722E0A34205475726E206F6666200A
S11314E074686520706F7765722E0A3520547572A2
S11314F06E206F6E2074686520726164696F2E00BF
S1131500312054414B45204F4646205448450A203B
S11315102050524F50454C4C45525321210A322001
S1131520436865636B20746865207468726F7474B3
S11315306C650A2020646972656374696F6E206942
S11315406E207468650A2020726563656976657229
S11315502074657374206D656E752E0A20205265A3
S113156076657273652069660A20206E656365730B
S1131570736172792E00506C616365207468652014
S11315806169726372616674206F6E0A61206C65B2
S113159076656C207375726661636520616E640A9A
S11315A0707265737320434F4E54494E55452E0A4D
S11315B05468652046432077696C6C207468656EB6
S11315C020776169740A352073656320746F206C19
S11315D06574207468650A61697263726166742057
S11315E0736574746C6520646F776E2E0041757832
S11315F0313A0A417578323A0A417578333A0A41E8
S11316007578343A00526F6C6C202841696C293A21
S11316100A50697463682028456C65293A0A59613F
S1131620772028527564293A0A5468726F74746C6E
S1131630653A0043616D65726120537461622053A1
S1131640657475700A0A526F6C6C206761696E3A32
S11316500A526F6C6C206F66667365743A0A50693F
S1131660746368206761696E3A0A5069746368201C
S11316706F66667365743A0A0050204761696E3A72
S11316800A50204C696D69743A0A0A416363205414
S113169072696D20526F6C6C3A0A41636320547214
S11316A0696D2050697463683A004D696E696D759F
S11316B06D207468726F74746C653A0A4865696762
S11316C068742044616D70656E696E673A0A486596
S11316D06967687420442E204C696D69743A0A4124
S11316E06C61726D20312F313020766F6C74733AD7
S11316F00A536572766F2066696C7465723A00539A
S11317007469636B205363616C696E670A0A526F74
S11317106C6C202841696C293A0A5069746368200A
S113172028456C65293A0A5961772028527564293D
S11317303A0A5468726F74746C653A0053656C6647
S11317402D4C6576656C3A0A41726D696E673A0A8A
S11317504C696E6B20526F6C6C2050697463683AEC
S11317600A4175746F2044697361726D3A0A43507B
S1131770504D20456E61626C65643A004779726F22
S113178020583A0A4779726F20593A0A4779726F9A
S1131790205A3A0A4163632020583A0A416363207D
S11317A020593A0A41636320205A3A0A4261747408
S11317B03A0041696C65726F6E3A0A456C657661F0
S11317C0746F723A0A5275646465723A0A546872A4
S11317D06F74746C653A0A417578313A0A417578C8
S11317E0323A00417869733A0A0A50204761696EB7
S11317F03A0A50204C696D69743A0A492047616974
S11318006E3A0A49204C696D69743A0053656C66F6
S11318102D6C6576656C2069730A0A42617474657F
S113182072793A0A526F6C6C20616E676C653A0A81
S1131830506974636820616E676C653A006E6F204E
S113184063616C6962726174696F6E00556E757361
S113185065642E00414C4C004343570043570044F9
S11318606972656374696F6E0A7365656E2066726A
S11318706F6D0A61626F76653A004F7574707574A6
S11318803A0041726520796F7520737572653F0067
S113189043616C6962726174696F6E20737563630E
S11318A06565646564007365630057616974696E96
S11318B067005468726F00596177005069746368F7
S11318C000526F6C6C004572726F723A004F66661C
S11318D0004F6E0046756C6C0049646C650046727E
S11318E0777264004261636B005269676874004CEC
S11318F0656674004E6F207369676E616C004C6F8F
S113190000486900536572766F00455343004E6F7B
S1131910005965730041555800537469636B00594D
S11319206177202852756464657229005069746374
S1131930682028456C657661746F722900526F6C5B
S11319406C202841696C65726F6E2900466163746E
S11319506F7279205265736574004465627567001F
S11319604C6F6164204D6F64656C204C61796F75B8
S1131970740053686F77204D6F64656C204C6179F7
S11319806F7574004D6978657220456469746F726F
S113199000537469636B2043656E746572696E6786
S11319A0004553432043616C6962726174696F6ED0
S11319B0004350504D2053657474696E677300532F
S11319C0656E736F722043616C6962726174696FD2
S11319D06E0053656E736F722054657374004361B7
S11319E06D65726120537461622053657474696E0D
S11319F067730053656C662D6C6576656C20536562
S1131A007474696E6773004D6973632E2053657433
S1131A1074696E677300537469636B205363616CFC
S1131A20696E67004D6F64652053657474696E67F1
S1131A30730052656365697665722054657374003A
S1131A40504920456469746F72004F4E004F4646FA
S1131A500041524D454400534146450078941F923D
S1131A600F920FB60F9211242F938F939F93EF939E
S1131A70FF9320910A018091780090917900E22FE0
S1131A80F0E0EE0FFF1FE55FFE4F9183808381E05E
S1131A90820F877080930A0180937C00EAE7F0E06C
S1131AA0808180648083FF91EF919F918F912F912A
S1131AB00F900FBE0F901F90189578941F920F925D
S1131AC00FB60F9211242F933F934F935F936F930D
S1131AD07F938F939F93AF93BF93CF93DF93EF93B2
S1131AE0FF93C0912701D0912801CE018F779927C8
S1131AF0892B81F4CE01880F892F881F990B91952A
S1131B008770806B0E94361180E10E94361180E05C
S1131B100E943611FE01E15DFE4F80815D985F9A5F
S1131B200E942A115D9A2196D370D0932801C09304
S1131B302701FF91EF91DF91CF91BF91AF919F91D9
S1131B408F917F916F915F914F913F912F910F9062
S1131B500FBE0F901F9018951F920F920FB60F9201
S1131B6011242F933F934F935F936F937F938F939E
S1131B709F93AF93BF93EF93FF9388B1897988B90B
S1131B80789480913705811115C00E940E1520911B
S1131B90350530913605AC01421B530B44315105D8
S1131BA030F0909336058093350581E001C080E0E4
S1131BB0809334058091370560913405880F0E9425
S1131BC04813909389008093880078948091370516
S1131BD090E001968370992780933705FF91EF91E8
S1131BE0BF91AF919F918F917F916F915F914F9131
S1131BF03F912F910F900FBE0F901F9018951F9239
S1131C000F920FB60F9211242F933F934F935F932C
S1131C106F937F938F939F93AF93BF93EF93FF93B0
S1131C2088B1867688B9789480913305811115C07E
S1131C300E940E152091310530913205AC01421BF2
S1131C40530B4431510530F09093320580933105A4
S1131C5081E001C080E08093300580913305880FD6
S1131C60609130058F5F0E94481390938B0080939E
S1131C708A0078948091330590E0019683709927C7
S1131C8080933305FF91EF91BF91AF919F918F9115
S1131C907F916F915F914F913F912F910F900FBE64
S1131CA00F901F9018951F920F920FB60F92112448
S1131CB02F933F934F935F936F937F938F939F9350
S1131CC0AF93BF93EF93FF930E94EB1478944B9BD5
S1131CD009C0609358057093590580935A059093F1
S1131CE05B050FC02091580530915905621B730B99
S1131CF070935F0560935E0580915C0581608093BD
S1131D005C05FF91EF91BF91AF919F918F917F916E
S1131D106F915F914F913F912F910F900FBE0F9054
S1131D201F9018951F920F920FB60F9211242F93A4
S1131D303F934F935F936F937F938F939F93AF934F
S1131D40BF93EF93FF930E94EB1478944A9B09C0CE
S1131D5060935405709355058093560590935705E9
S1131D600FC02091540530915505621B730B70937D
S1131D7061056093600580915C05826080935C05D9
S1131D80FF91EF91BF91AF919F918F917F916F914F
S1131D905F914F913F912F910F900FBE0F901F9025
S1131DA018951F920F920FB60F921124CF92DF92C3
S1131DB0EF92FF920F931F932F933F934F935F9351
S1131DC06F937F938F939F93AF93BF93EF93FF93FF
S1131DD00E94EB14789420915D052223C1F10091B7
S1131DE050051091510520915205309153056B0116
S1131DF07C01C01AD10AE20AF30A41E6C4164AEE8B
S1131E00D406E104F10430F010924F0521E0209350
S1131E104E051FC040914F054830D8F4E42FF0E040
S1131E20EE0FFF1FE25AFA4F9B01201B310B318347
S1131E3020834F5F40934F0530914E0520915C0500
S1131E40232B20935C05330F30934E0502C01A9B5D
S1131E5009C0609350057093510580935205909387
S1131E6053050FC02091500530915105621B730B2F
S1131E70709363056093620580915C058460809330
S1131E805C05FF91EF91BF91AF919F918F917F91ED
S1131E906F915F914F913F912F911F910F91FF90FF
S1131EA0EF90DF90CF900F900FBE0F901F9018957A
S1131EB01F920F920FB60F9211242F933F934F93BB
S1131EC05F936F937F938F939F93AF93BF93EF939E
S1131ED0FF930E94EB147894489B05C070934D05C2
S1131EE060934C050FC020914C0530914D05621B49
S1131EF0730B709365056093640580915C0588603D
S1131F0080935C05FF91EF91BF91AF919F918F9169
S1131F107F916F915F914F913F912F910F900FBEE1
S1131F200F901F9018951F920F920FB60F921124C5
S1131F302F933F934F935F936F937F938F939F93CD
S1131F40AF93BF93EF93FF930E94EB147894189B85
S1131F5005C070934B0560934A050FC020914A0554
S1131F6030914B05621B730B709367056093660594
S1131F7080915C05806180935C05FF91EF91BF9136
S1131F80AF919F918F917F916F915F914F913F910D
S1131F902F910F900FBE0F901F9018951F920F92C4
S1131FA00FB60F9211248F939F93EF93FF93909109
S1131FB0590680915A06981779F0E0915906F0E095
S1131FC0E75CF94F9081809159068F5F8F71809300
S1131FD059069093CE0005C08091C9008F7D8093EF
S1131FE0C900FF91EF919F918F910F900FBE0F90B9
S1131FF01F9018951F920F920FB60F9211242F93D2
S11320003F934F935F936F937F938F939F93AF937C
S1132010BF93EF93FF936091CE0087E196E00E9417
S11320205914FF91EF91BF91AF919F918F917F913F
S11320306F915F914F913F912F910F900FBE0F9031
S11320401F90189511241FBECFEFD8E0DEBFCDBF7F
S113205014BE88E10FB6F89480936000109260007B
S11320600FBE11E0A0E0B1E0E2EAF9E402C005909D
S11320700D92AA30B107D9F726E0AAE0B1E001C079
S11320801D92A731B207E1F70E9456170C94CF2492
S11320900C9400008FEF80937E0010927C008FEDF3
S11320A080937A000895F894E82FF0E0EE0FFF1F74
S11320B0E55FFE4F8081918178940895299A29984B
S11320C008950E940E1540911D0150911E0120910A
S11320D01B0130911C014115510559F082179307DA
S11320E088F0199A480F591F50931C0140931B0103
S11320F009C02115310531F0299B04C082179307CB
S113210008F0199A409121015091220120911F0158
S1132110309120014115510559F08217930788F039
S11321201B9A840F951F9093200180931F0108959B
S11321302115310531F02B9B04C08217930708F059
S11321401B9A0895CF93DF93EC010E940E158C0F18
S11321509D1F90931C0180931B01299ADF91CF91BD
S11321600895CF93DF93EC0180911D0190911E019E
S1132170892B31F40E940E1590931C0180931B014E
S1132180D0931E01C0931D01CD2B09F42998DF9132
S1132190CF91089583B18095807F08950F931F9305
S11321A0CF93DF930E940E15EC010E94CA10182FE2
S11321B080912601082F009501231123E1F1811755
S11321C051F0D0932501C09324011092230185E09E
S11321D090E00E94A210809123012091240130916B
S11321E02501803158F0AE01421B530B4431510597
S11321F038F0D0932501C09324011CC0882361F0DA
S1132200AE01421B530B44365105A8F0D09325016F
S1132210C09324018F5F0CC0CE01821B930B9C01E1
S1132220243F314040F0D0932501C093240181E044
S113223080932301012F10932601802FDF91CF91EA
S11322401F910F91089584B1806F84B985B1806F17
S113225085B9089598E05C9887FF02C0599A01C037
S113226059985C9A880F9150B1F708955D985F98DA
S11322700E942A115D9A08956F7760932E01880F4A
S1132280880F880F80932D01089580932E01609309
S11322902D010895962F969596959695A82FB0E0C2
S11322A080E8989FA00DB11D1124A15DBE4F6770F9
S11322B0E62FF0E0E458FF4FE49121E0411120E0E3
S11322C080912F0581709C91281719F0E095E923DE
S11322D001C0E92BEC9308958F929F92BF92CF9205
S11322E0DF92EF92FF920F931F93CF93DF9300D06F
S11322F01F92CDB7DEB7C82ED62EB42EE42FF0E051
S1132300E81BF109F7FF03C0F195E195F1090E2FE0
S1132310CB1410F431E001C03FEFE22FF0E0ED19EF
S1132320F109F7FF03C0F195E195F109EE2EE1946F
S1132330D21610F491E001C09FEF112707FD10950C
S1132340FF24E7FCF09448018E0C9F1C41E06D2DA6
S11323508C2D2B8339839A830E944A112B813981D6
S11323609A81CB1002C0D21681F0F401EE0FFF1F48
S1132370EE16FF061CF48E0C9F1CC30EE017F1072B
S11323802CF7800E911ED90EE1CF0F900F900F9075
S1132390DF91CF911F910F91FF90EF90DF90CF903D
S11323A0BF909F908F900895EF92FF920F931F9389
S11323B0CF93DF93D82FC62F142FF22E481710F483
S11323C0D42F182FFC1618F48C2FCF2DF82EED2EA9
S11323D01E1560F0402F6C2F8E2D0E944A11402F45
S11323E06F2D8E2D0E944A11E394F2CFFC1660F0FB
S11323F0402F6C2F8D2F0E944A11402F6C2F812F5C
S11324000E944A11CF5FF2CFDF91CF911F910F91BC
S1132410FF90EF900895DF92EF92FF920F931F9336
S1132420CF93DF931F92CDB7DEB7D82EE62E142FAD
S1132430481710F4D42E182F2E1528F48E2DE22EC2
S1132440282F01C0E3942E1560F0FD2C1F15D0F346
S1132450402F6E2D8F2D29830E944A11F3942981D8
S1132460F5CF0F90DF91CF911F910F91FF90EF90D7
S1132470DF90089580E094E0EFE2F1E0DF019C0159
S11324801D9221503040E1F710922E0110922D013F
S113249010922F050895AF92BF92CF92DF92EF92E0
S11324A0FF920F931F93CF93DF93EC01A62EC42EBC
S11324B0B22ED12CE12C042F10E0DA1409F44BC015
S11324C0F12CFC1408F045C08F2D877029F4CE013F
S11324D00196FE01E490EC01B1102AC060912D0137
S11324E0962F97706F0D80912E0191111EC0F801E7
S11324F0EF19F1093897CCF06695669566958D0DC0
S1132500A82FB0E0F0E86F9FA00DB11D1124A15DCC
S1132510BE4F80912F0580FF04C08E2D80958C9333
S113252001C0EC9287E0F80E11C04E2D41700BC033
S1132530E1E0BE120BC0E0FE09C060912D016F0DF9
S113254080912E0141E08D0D0E944A11E694F3948E
S1132550B8CFD394B2CFDF91CF911F910F91FF9059
S1132560EF90DF90CF90BF90AF900895262FFC019D
S113257064913196449102960C944B12CF93DF935D
S113258000D0CDB7DEB740912A018A3041F4809162
S11325902D01840F80932D0110922E0115C060919E
S11325A02901E0912B01F0912C014A83698309955B
S11325B020E04A8169810E944B1280912E01909102
S11325C02901890F80932E010F900F90DF91CF91F5
S11325D00895CF93DF93EC018991882319F00E9429
S11325E0BE12FACFDF91CF910895CF93DF93009776
S11325F051F0FC018491EF012196882321F00E947F
S1132600BE12FE01F7CFDF91CF91089590912F056F
S1132610882311F0916001C09E7F90932F05089547
S113262016BC81E085BBEEE6F0E0808181608083AA
S11326300895EEE6F0E080818E7F80830895009710
S113264011F480EA97E044E050E0BC0189E291E0B3
S11326500C945624CF93DF93559A569A579A549ACA
S1132660519A5E985E9AE4E8F0E08491EF01219635
S1132670882321F00E943611FE01F7CF80E090E01C
S11326800E941F1382E085BDDF91CF910C9410133B
S1132690CF93DF93E82FF0E09F01220F331FD9017E
S11326A0A85CBA4F8D919C91892B29F186E08E9F6D
S11326B0D0018F9FB00D1124ED01C855D94F8881E9
S11326C08823C9F080FD04C0611102C082FF13C0D9
S11326D0F89488B1E057FF4FE491E82BE8B9809172
S11326E0840090918500F901E85CFA4F20813181E2
S11326F0820F931F06C080918400909185008053BF
S1132700984FDF91CF9108958FEF87B918B8089546
S1132710F894E82FF0E0EE0FFF1FE85CFA4F24E195
S1132720269FC001279F900D112491838083789464
S11327300895E4E8F0E0808191819093890080938A
S113274088008081918190938B0080938A0086B366
S1132750866086BBEFE6F0E0808186608083089522
S1132760CF93DF93C82FDFB7F894882379F00E94C2
S11327706A14539880E28093690087E08CBB84E0FC
S11327808DBB109268008AE08BBB19C00E949F1415
S11327905398529850982298209885E18093690024
S11327A087E08CBB8DBB81E080936C0080937300C9
S11327B08AE08BBB909168009A6090936800C09304
S11327C05D051092A505DFBFDF91CF910895CF93EA
S11327D0DF930E940E1560915C057091A505209110
S11327E0480530914905AC01421B530B4233510556
S11327F020F0762F9C0160E0F6CF60935C05709327
S1132800A5053093490520934805E6EBF5E0CCE5B2
S1132810D6E0A6EAB5E020EF35E0F8947894219369
S1132820319389919991A901481B590BCA01959536
S11328308795959587958D939D9355E0E63CF5078F
S113284061F78091AC059091AD059595879590932E
S1132850AD058093AC05DF91CF9108950E94E713F5
S11328602091BC053091BD052A513440E6EBF5E0DA
S113287040E0433021F42536310550F018C0808102
S11328809181009729F08E5B95408536910578F407
S11328904F5F3296483069F780E1E6EBF5E0ACE54E
S11328A0B6E001900D928A95E1F781E0089580E009
S11328B00895FC0181A190A18F5F8F71891749F060
S11328C081A1DF01A80FB11D6C9381A18F5F8F716E
S11328D081A3089510925A06109259061092370651
S11328E0109238068AE090E09093CD008093CC005B
S11328F01092C80088E98093C90086E08093CA00DA
S113290008959091C9009923C9F09091C80095FF4A
S113291008C08093CE008091C90080628093C90072
S1132920089590915A06209159069F5F9F719217BE
S1132930C1F3682F89E396E00C945914089510921A
S1132940C8001092C90008951F920F920FB60F92FB
S113295011242F933F934F935F936F938F939F9380
S113296080916E0590916F05019690936F05809309
S11329706E0580917205909173059C012D5F3F4F08
S11329803093730520937205209170053091710581
S1132990A9014053554F403167E2560728F450933C
S11329A07105409370050BC020543C413093710570
S11329B020937005049690937305809372059F91FC
S11329C08F916F915F914F913F912F910F900FBE17
S11329D00F901F9018950F931F938FB7F8946091E1
S11329E06E0570916F050091840010918500B09B75
S11329F006C00D3F9FEF190710F46F5F7F4F8FBF25
S1132A00CB01A0E0B0E07727662720E030E0602B20
S1132A10712B822B932B1F910F9108952FB7F8944C
S1132A2080917205909173052FBF089585B78068D2
S1132A3085BF85B7806885BF239A81E08093810034
S1132A4080936F0008959FE9980F9A3108F480529B
S1132A50282F30E02052310948E1429FC001439FB2
S1132A60900D112484569F4F089524E0829FC00145
S1132A701124805E994F0895282F30E020523109A7
S1132A8046E0429FC001439F900D11248C55984FFE
S1132A9008954CE750E065E27AE08BE596E00E9409
S1132AA05624809192060C9424194CE750E060E07F
S1132AB070E08BE596E00E948D2480915B06803661
S1132AC011F00C94491508950C9455154CE750E0F9
S1132AD060E070E08BE596E00C949D240C9449151D
S1132AE0861797072CF0481759071CF4CA01089554
S1132AF0CB010895282F30E0A901440F551FFA0196
S1132B00EA55FA4FD901A55AB94FD8969C9101902C
S1132B10F081E02D9E9FB0019F9F700D11248230A3
S1132B2029F44091DE055091DF0505C0FA01EC520D
S1132B30FA4F40815181460F571FF901EE0FFF1FD5
S1132B40EE0FFF1FDF01A55AB94F96962C9130E086
S1132B50DA010E944F24EC58FA4F452F550F550BBC
S1132B6020813181240F351F318320833CE09595EA
S1132B708795779567953A95D1F797FF04C06F5F6E
S1132B807F4F8F4F9F4FCB01089540919606209120
S1132B90AC053091AD05429FC001439F900D1124B7
S1132BA0AA2797FDA095BA2F75E0B595A795979597
S1132BB087957A95D1F7089580E00E947A159195CA
S1132BC0819591099093C7058093C60581E00E9481
S1132BD07A159093C9058093C80582E00E947A15FE
S1132BE09195819591099093CB058093CA050E9494
S1132BF0C5159093CD058093CC0508958CE0E4E74A
S1132C00F5E0DF011D928A95E9F70895FC0197FF2D
S1132C1004C0EE27FF27E81BF90BF595E795E03490
S1132C2008F0EFE3F0E0EF55F54FE491F0E0EE0F3C
S1132C30FF1F80FD319697FF03C0F195E195F109DF
S1132C40CF019695982F88279795879508950F9388
S1132C501F93482F50E0440F551FDA01AC52BA4F6E
S1132C60FA01E652FA4F0D90BC91A02D808191811A
S1132C70A80FB91F2FEF30E00E944F24FA01E2534E
S1132C80FA4F00811181222717FD2095322F600F02
S1132C90711F821F931FBB2797FDBA95A92F982FE9
S1132CA0872FB7FF03C00196A11DB11D1F910F917E
S1132CB008958F929F92AF92BF92CF92DF92EF923C
S1132CC0FF92CF93DF930E94EB1480908005909045
S1132CD08105A0908205B0908305EB01C819D9093C
S1132CE080911106909112060E9406162091A10669
S1132CF0332727FD3095322F2227280F391F309391
S1132D00CF052093CE0580911306909114060E945E
S1132D1006162091A206332727FD3095322F22274D
S1132D20280F391F3093D1052093D00580911506C3
S1132D30909116060E940616965A9093D305809396
S1132D40D205A0910B06B0910C069E010E944F245F
S1132D50BB2797FDB095AB2FB7FF03C00196A11D0C
S1132D60B11D9093DB058093DA05A0910D06B09117
S1132D700E069E010E944F24BB2797FDB095AB2FF2
S1132D80B7FF03C00196A11DB11D9093DD0580938B
S1132D90DC05A0910F06B09110069E010E944F24FD
S1132DA06C01FF24D7FCF094EF2CF7FE05C08FEFE5
S1132DB0C81AD80AE80AF80AD092DF05C092DE05DC
S1132DC080E00E9427169093D5058093D40581E076
S1132DD00E9427169093D7058093D6058091D80535
S1132DE09091D9058C0D9D1D9093D9058093D8059C
S1132DF08C0E9D1EA11CB11C8092800590928105B1
S1132E00A0928205B0928305DF91CF91FF90EF905D
S1132E10DF90CF90BF90AF909F908F9008952091B6
S1132E200A062223C9F080919B068823A9F028175B
S1132E3098F430E0281B310946E0429FC001439FCB
S1132E40900D112444EF51E064E170E08C509E4FEA
S1132E500E9470150C94B1100895CF93DF931F92C4
S1132E60CDB7DEB799830E9481149981892F0F9081
S1132E70DF91CF910C9481149091E005882361F047
S1132E80911113C081E08093E0052B9A0E94DB230B
S1132E900E9419130C94FE15992339F01092E00541
S1132EA02B980E94DB230C94101308950E9416158E
S1132EB078940E9464150E944A10809191060E94A1
S1132EC0B0130E9423190E9484130E9423110E94AC
S1132ED02A130E94D8230E943A1260E080E00E94E4
S1132EE03C1188E990E00E941F1382EF9AE00E944F
S1132EF0F51280E090E00E941F1360E083E00E94DE
S1132F003C118EE09BE00E94F51260E084E00E9498
S1132F103C118DEF9AE00E94F51284EF91E00E943B
S1132F205E100E94E7138091AC059091AD058A353F
S1132F3091059CF0C1E0C093E8050E943A1262E159
S1132F4083E00E943C1181EE9AE00E94F512C09346
S1132F50E0050E949913C6E029C00E94CA10803976
S1132F6049F30E9499130E94EB146B017C0184E1E4
S1132F70882E912CA12CB12CC1E058C0CE9DF0011B
S1132F80CF9DF00D1124E855F94F808180FF13C0C7
S1132F906091BC057091BD058E2D0E9488132FEFA2
S1132FA0E21AF20A38E0E316F10441F70E94E7134B
S1132FB0E12CF12CE3CF60EF75E0EECF0E940F1708
S1132FC00E9461108FE10E9481148EE10E9481149D
S1132FD08CE10E9481148091C6059091C7050E94DE
S1132FE02D178091C8059091C9050E942D178091D5
S1132FF0CA059091CB050E942D178091CC05909124
S1133000CD050E942D178091EB059091EC050E944F
S11330102D1730E4C30E3CE9D31EE11CF11C0E94C1
S1133020EB146C157D058E059F05C8F380918A0508
S113303090918B05A0918C05B0918D05A701960107
S1133040281B390B4A0B5B0BCA01B901A50194017A
S11330500E9416243093EA052093E905C0928A055C
S1133060D0928B05E0928C05F0928D050E94E713B7
S113307021E08091AC059091AD0505970CF020E01E
S11330802093E10521E08091AE059091AF050B9767
S11330900CF420E02093E30531E08091B005909199
S11330A0B1050B970CF430E03093E40531E08091E6
S11330B0B2059091B3050B970CF430E03093E5051D
S11330C031E08091B4059091B5050B970CF430E094
S11330D03093E60580918D06882339F0823019F407
S11330E0C093E20502C02093E20580918006882304
S11330F011F090E001C090E88091A50580958F7053
S1133100892B8093E7050E940E158C018091ED05B3
S113311081116CC08091E705811168C020918605FA
S1133120309187058091E1052115310599F48823B3
S113313081F18091AA059091AB0597FF03C0919509
S1133140819591098C34910524F11093870500939E
S113315086051FC08823C9F08091AA059091AB050C
S1133160AC01465B5F4F4539510578F0A801421B1D
S1133170530B9A01203D374060F08C34910514F0D4
S113318081E001C080E00E943C17109287051092F4
S1133190860580918F06882349F180918E068111DE
S11331A025C080918405909185052091E1050097C3
S11331B059F42223D9F08091E0058823B9F01093C3
S11331C085050093840512C0222361F02091E00557
S11331D0222341F0081B190B00361A4E38F080E008
S11331E00E943C1710928505109284050E943B1A98
S11331F00E9459160E94DC150E9446190E94F31978
S11332000E94EB146C197D098E099F09A501940194
S11332100E9416243093EC052093EB050E940E15B2
S11332208C0180918805909189059801281B390BA0
S11332302931310508F4C2CE0E94AC2310938905CC
S113324000938805EECF0895CF93C82FE82FF0E0C0
S1133250EE0FFF1FE55EF44F65917491FB0132960A
S1133260E49180E323EA36E0D9011D928A95E9F7D7
S11332704E2F440F4E0F440F50E06D5F7F4FC90136
S11332800E945624C0939206CF9108954F925F9264
S11332906F927F929F92AF92BF92CF92DF92EF9202
S11332A0FF920F931F93CF93DF93C8EAD6E03EEECD
S11332B0A32E35E0B32E00E010E046E0942E888182
S11332C0811104C0F5011182108273C0909EF00137
S11332D0919EF00D1124E855F94F808181FF07C0BC
S11332E024EA422E55245394612C712C03C0412CA2
S11332F0512C32012091C6053091C705FE01349747
S1133300A081BB27A7FDB0950E9438246B017C01E6
S1133310C40CD51CE61CF71C2091C8053091C905C6
S11333203196A081BB27A7FDB0950E943824C60E14
S1133330D71EE81EF91E2091CA053091CB0531969F
S1133340A081BB27A7FDB0950E943824C60ED71EC6
S1133350E81EF91E2091CC053091CD053397A0814C
S1133360BB27A7FDB0950E943824C60ED71EE81EC1
S1133370F91E3496A081BB27A7FDB0952CE031E05F
S11333800E944F24C60ED71EE81EF91E95E0F59440
S1133390E794D794C7949A95D1F7C601845B9B4F61
S11333A044E358E064E873E00E947015F5019183EA
S11333B080830F5F1F4F2696F2E0AF0EB11C0830DA
S11333C0110509F07CCFDF91CF911F910F91FF90F0
S11333D0EF90DF90CF90BF90AF909F907F906F90D1
S11333E05F904F900895FF920F931F93CF93DF93B5
S11333F00EEE15E0C0E0D0E056E0F52E8C2FFC9EDA
S1133400F001FD9EF00D1124E855F94F908191FFD4
S113341004C0F8016081718120C090FF1BC09091AD
S1133420E0059923A1F09091E105911110C020913C
S11334309706FAE02F9F90011124245B3B4FF8017B
S1133440608171816217730740F4B90106C06CE4AE
S113345074E003C060E070E08C2F0E948813219612
S11334600E5F1F4FC830D10549F6DF91CF911F91F0
S11334700F91FF90089584E00E94531090930706E3
S1133480809306062091760630917706281B390B27
S1133490C9010296059728F030930E0620930D0675
S11334A004C010920E0610920D0681E00E94531083
S11334B09093050680930406209174063091750656
S11334C0281B390BC9010296059728F030930C0686
S11334D020930B0604C010920C0610920B0682E097
S11334E00E94531090930906809308062091780651
S11334F030917906821B930B9C012E5F3F4F253040
S1133500310528F09093100680930F0604C01092A2
S1133510100610920F0685E00E9453109093010646
S11335208093000620917C0630917D06821B930BCC
S1133530909314068093130686E00E945310909390
S1133540FF058093FE0520917A0630917B06821B4D
S1133550930B909312068093110687E00E945310F8
S1133560909303068093020620917E0630917F0695
S1133570821B930B909316068093150683E00E949A
S1133580531024E6AC01249FC001259F900D112403
S113359068E771E00E94EE2360930A0610920C061D
S11335A010920B0610920E0610920D061092100641
S11335B010920F0610921206109211061092140621
S11335C010921306109216061092150608950E9482
S11335D03B1A86E0E4E0F6E0A4E7B6E001900D9241
S11335E08A95E1F786E0EEEFF5E0AAE7B6E0019010
S11335F00D928A95E1F781E0809380060895E82F83
S1133600F0E0EE0FFF1FE55EFF4E85919491089563
S1133610CF93C82F86E0C89FB0011124635C7F4E0E
S113362046E050E08AE995E00E945624C093ED05F7
S113363084E08093A4051092A3051092A205CF9173
S11336400895CF93DF9300D01F92CDB7DEB7E82F54
S1133650F0E0EE0FFF1FE55EF44F6591749143E0D7
S113366050E0CE0101960E94562489819A810F90E0
S11336700F900F90DF91CF910895CF93DF93D82FC0
S1133680C0E0CD172CF480E20E94BE12CF5FF9CFC8
S1133690DF91CF9108950F931F93CF93DF931F92E0
S11336A0CDB7DEB78C0169830E94F512C8010E9470
S11336B05F246981681B862F0F90DF91CF911F9142
S11336C00F910C943D1BCF93DF93EC01009731F4E1
S11336D0C0919A05D0919B05209751F060E087E056
S11336E00E943C1165E1CE01DF91CF910C944B1BFC
S11336F0DF91CF910895EF92FF920F931F93CF9391
S1133700DF9300D0CDB7DEB7182F7A0191E0809116
S1133710A305081390E0892F2A8369830E94061366
S11337206981812F0E943C112A81622FC7010E9466
S11337304B1B80E00F900F90DF91CF911F910F9161
S1133740FF90EF900C940613DF92EF92FF920F9389
S11337501F93CF93DF93E82EF62E86E0E89EE001D8
S11337601124CD55D94F8D8180FF69C0998197FD72
S11337709D5F092F059505951A8117FD1D5F159508
S11337801595119560E2610F20E240E680E6800F16
S11337900E946C116EE18EE50E94451160E084EE9A
S11337A099E00E94B6126CE1610F2CE5D22ED00E86
S11337B08D2D0E94451161E08DEF99E00E94B612B3
S11337C069E1610F8D2D0E9445118B8161E087FDB8
S11337D003C082EF99E002C08BEE99E00E94B6121A
S11337E06EE1610F8EE5800F0E94451181E00E9419
S11337F006138CE996E00E941F1381E38E0D0E944C
S1133800BE1280E090E00E941F1380E00E94061325
S1133810FF2061F160E082E00E943C118FE598E1B5
S11338200E94F51260E085E00E943C118B8187FDC7
S113383003C08CE598E111C088E598E10EC06623C9
S1133840A9F060E483E00E943C118D8181FF03C0F4
S113385084E099E102C08CE498E1DF91CF911F915B
S11338600F91FF90EF90DF900C94F512DF91CF91C0
S11338701F910F91FF90EF90DF9008959091A40510
S113388096FF09C06091A305611102C081500FC069
S11338908FEF860F0CC095FF0CC02091A30530E07C
S11338A02F5F3F4F682F70E0C9010E94022480936C
S11338B0A30508958091A40580FF08C062E183E018
S11338C00E943C1182E898E10C94F51284FF11C027
S11338D00E946E150E946615F89428E088E190E035
S11338E00FB6F894A895809360000FBE20936000F3
S11338F0FFCF08958091A4058823E9F08091A30562
S1133900863018F081E00C94081B0E943A12E09172
S1133910A305F0E0EE0FFF1FE654FD4E8591949150
S11339200E94F51280E090E00E94631B8091A30541
S11339308F5F8093A3050895EF92FF920F931F93D7
S1133940CF93DF93EC018091A405882309F46FC021
S113395086FF06C08C81882399F081508C8310C027
S113396085FF0CC04C81242F30E0888190E00197C2
S1133970281739072CF44F5F4C8302C084FD59C0CB
S11339802C813B81231738F0822F90E0831B91090F
S1133990059714F024502B836AE380E00E943C11C5
S11339A081E09B81911180E00E94061361E08BE12C
S11339B09AE00E94B61200E010E08881081708F52A
S11339C060E081E0800F0E943C118B81E981FA81E3
S11339D0800F09957C018B81A801480F511D2C8112
S11339E030E081E04217530709F080E00E9406139B
S11339F065E1C7010E944B1B0F5F1F4F0530110586
S1133A00E1F66AE386E00E943C114B8150E0288194
S1133A1030E02550310981E0421753070CF480E06F
S1133A200E94061361E081E19AE00E94B61280E0F0
S1133A3001C081E0DF91CF911F910F91FF90EF9032
S1133A4008958091A40580FF04C0909192069093FC
S1133A5004019091A305911118C080E091E00E94A7
S1133A609C1C8823D9F00E943A1262E183E00E94F0
S1133A703C1182E898E10E94F5128DEE90E10E94DB
S1133A80631B81E08093A305089584FF07C08091A0
S1133A9004010E9424198FE00C94081B089585E00A
S1133AA091E00E949C1C882329F0809109018E5F7B
S1133AB00C94081B0895CF938091A4058823C1F129
S1133AC086FF0AC08091A30590E0019669E070E04A
S1133AD00E9402248093A3050E943A1280E090E0A1
S1133AE00E94631B60E080E00E943C118AE798E139
S1133AF00E94F51280E20E94BE128091A3058111FA
S1133B000DC084E598E10E94F512C0E060E08C2FBE
S1133B100E94A41BCF5FC830C9F70AC0805D0E9411
S1133B20BE128091A30561E08150CF910C94A41B37
S1133B30CF9108958091A40580FF15C08091A505BB
S1133B408F708F3061F084E192E10E94F51281E080
S1133B508093A30589E191E10E94631B04C08FE572
S1133B6092E10E94F5129091A3058091A405911110
S1133B701DC084FF20C00E943A120E942E14882384
S1133B8049F00E94661560E083E00E943C1180E9E0
S1133B9098E102C087EC91E10E94F51280E090E088
S1133BA00E94631B81E08093A305089584FF03C0F2
S1133BB081E00C94081B0895CF938091A305811193
S1133BC024C08091A40584FF55C081E08093A3059F
S1133BD00E943A1262E183E00E943C118AEA98E171
S1133BE00E94F5126EE483E00E943C1186EA98E19B
S1133BF00E94F5128FEA90E10E94631B0E940E1549
S1133C009093A1058093A00535C0813059F562E4F5
S1133C1083E00E943C110E940E152091A005309172
S1133C20A105821B930B68EE73E00E94EE23C62F5E
S1133C3085E3861B0E94BE12C530E0F00E94E71A9D
S1133C400E94661560E083E00E943C1180E998E1DF
S1133C500E94F51280E090E00E94631B82E0809352
S1133C60A30508C08091A40584FF04C081E0CF911E
S1133C700C94081BCF9108950F93CF93C091A40582
S1133C80CC2309F48CC085E00E943E1CC4FF37C0DD
S1133C908091A30581110BC080918D0690E001965F
S1133CA063E070E00E94022480938D0624C081307A
S1133CB039F490918E06911180E080938E061BC09A
S1133CC0823041F481E090919006911180E08093DC
S1133CD0900611C0833041F481E090918F069111D8
S1133CE080E080938F0607C081E090919106911146
S1133CF080E080939106809191060E94B013809198
S1133D008D06823029F0813031F445E159E105C056
S1133D1041ED58E102C049E159E100E025E064E5E4
S1133D2080E00E947B1B80918E06882319F041ED70
S1133D3058E102C049E159E101E025E064E581E090
S1133D400E947B1B80919006882319F041E159E180
S1133D5002C04EE059E102E023E066E682E00E9400
S1133D607B1B80918F06882319F041E159E102C041
S1133D704EE059E103E023E064E583E00E947B1B0D
S1133D8080919106882319F041E159E102C04EE087
S1133D9059E104E023E064E584E00E947B1BCF91B9
S1133DA00F910895CF92DF92EF92FF920F931F939A
S1133DB0CF93DF93CDB7DEB727970FB6F894DEBF66
S1133DC00FBECDBF182FD62ECA01C22E4AE09E01C7
S1133DD02F5F3F4F7901B9010E94682491E08091DF
S1133DE0A305081390E0892F0E9406136D2D812FDF
S1133DF00E943C11C7010E94E912F70101900020C2
S1133E00E9F73197EE19FF098C2D8E1B0E943D1B9B
S1133E1080E00E94061327960FB6F894DEBF0FBE0B
S1133E20CDBFDF91CF911F910F91FF90EF90DF9065
S1133E30CF9008950F934091920650E00FEF22E047
S1133E4062E480E00E94D21E4091C6055091C705ED
S1133E5026E062E481E00E94D21E4091C8055091A0
S1133E60C90526E062E482E00E94D21E4091CA05A0
S1133E705091CB0526E062E483E00E94D21E40917B
S1133E80CC055091CD0526E062E484E00E94D21E68
S1133E900F910895EF92FF920F931F93CF93DF93A7
S1133EA04BE0E42E46E0F42EC1E1D6E010E0F70149
S1133EB0419151917F010FEF25E060E3812F0E9432
S1133EC0D21E4991599125E060E383E0810F0E945D
S1133ED0D21E1F5F133059F740910A0650E025E0C7
S1133EE060E386E00E94D21EDF91CF911F910F9173
S1133EF0FF90EF900895EF92FF920F931F93CF934B
S1133F00DF9376EAE72E75E0F72EC0E0D0E08091EB
S1133F10A50590E00C2E02C0959587950A94E2F7CA
S1133F2080FF49C0F701408151810FEF24E062E432
S1133F308C2F0E94D21E60E68C2F0E943C11C3304D
S1133F40A9F48091E105882321F065E089ED98E1E9
S1133F500AC08091AC059091AD058B3491059CF01D
S1133F6065E084ED98E10E944B1B2DC0F701808130
S1133F7091819C0197FF04C022273327281B390B0A
S1133F802632310524F485E00E943D1B1CC021E04B
S1133F9030E01816190614F020E030E0FE01EE0FB0
S1133FA0FF1FE20FF31FEE0FFF1FE659F04F85913D
S1133FB0949165E0D8CF62E48C2F0E943C1184EF89
S1133FC098E10E94F5122196F2E0EF0EF11CC63042
S1133FD0D10509F09CCFDF91CF911F910F91FF90F4
S1133FE0EF9008950F938091A40584FF19C0109257
S1133FF0910580919005882311F0813039F4E09186
S11340008E05F0918F0580919805808380E090E083
S11340100E941F1382E08093A4050F910C94462004
S1134020882391F186FF0DC08091980590919905A0
S1134030209196053091970528173907DCF40197EC
S113404015C085FF0DC08091980590919905209128
S11340509405309195058217930764F4019606C080
S113406087FF08C0809192059091930590939905DC
S11340708093980540919805509199050FEF25E09C
S113408062E282E00E94D21E0F9108958091910510
S113409081110C94F21F8091A405837091F00E9409
S11340A03A1280919E0590919F05009711F00E940D
S11340B0F51280E090E00E94631B60E080E00E94C3
S11340C03C11E0919C05F0919D05309709F009940D
S11340D008950F9331E0309391053093A4059093A4
S11340E08F0580938E0520939005211104C0FC0157
S11340F0808190E007C0213049F4FC018081992738
S113410087FD9095909399058093980570939705F2
S11341106093960550939505409394058091980576
S113412090919905909393058093920500E022E283
S113413042E66BE08EE10E940B1201E022E242E6CD
S11341406BE08EE10E94D41121E241E66CE08FE144
S11341500E94D41181EC90E10E94631B88E990E0F5
S11341600E941F130F910C94F21F0F931F93CF9370
S1134170DF938091A405882309F49FC084FF41C084
S11341808091A305E091A205811105C0EF5FE7705E
S1134190E093A20536C0863098F490E026E0E29FD2
S11341A0800D911D112421E04FE750E061E87FEF7D
S11341B08E55994FDF91CF911F910F910C946920E7
S11341C08630A9F48E9FF0011124DF01A855B94F60
S11341D08C91811102C085E006C0E855F94F8081B9
S11341E080FF03C082E08C930CC01C920AC086E05E
S11341F0E89FF0011124E855F94F808194E0892764
S1134200808388E00E943E1C4091A20550E04F5FED
S11342105F4F00E021E068E780E00E94D21EC0E02A
S1134220D0E016E00C2F0F5F8091A205FE01189FCD
S1134230E00DF11D1124ED55F94F4081552747FD3F
S1134240509524E06CE38C2F0E94D21E2196C53039
S1134250D10541F7E091A20526E0E29FF001112487
S1134260E855F94F808180FD05C081FF06C044E018
S113427059E105C04AE059E102C04DEC58E106E0BD
S113428025E064E285E00E947B1BE091A20586E0C4
S1134290E89FF0011124E855F94F808180FF03C0A5
S11342A041E059E104C082FDFBCF4EEF58E107E045
S11342B023E06CE685E00E947B1BDF91CF911F9188
S11342C00F910895EF92FF920F931F93CF93DF9373
S11342D0D091A405DD2309F462C01091A30588E000
S11342E00E943E1CC091A305C695C695D37021F4C7
S11342F0169516951C17B9F00E943A1281EB99E1B4
S11343000E94F51260E082E00E943C11C11103C0DA
S113431085E096E102C08DEE95E10E94F51280E001
S113432090E00E94631B8091A405EC2EF12C84FF85
S113433018C0C701880F991F880F991F2091A305E2
S1134340820F911D20E048E050E061E070E0855963
S1134350994FDF91CF911F910F91FF90EF900C94A3
S113436069201C2F110F110FEE0CFF1CEE0CFF1C0B
S1134370C0E0D0E0C701855A994F7C010C2F010F92
S1134380F701EC0FFD1F418950E021E06EE48C2F12
S11343908E5F0E94D21E2196C430D10579F7DF9139
S11343A0CF911F910F91FF90EF900895DF92EF92BC
S11343B0FF920F931F93CF93DF93CDB7DEB7299767
S11343C00FB6F894DEBF0FBECDBF7C01D62E109180
S11343D0A4051123A9F1862F0E943E1C14FD19C0C7
S11343E010E01D1569F149E050E0B701CE010196D6
S11343F00E945624EB81FC81408150E0012F2985E5
S11344006A8189810E94D21E1F5F89E0E80EF11C37
S1134410E8CF8091A305B70199E0899F600D711DD4
S1134420112449E050E0CE0101960E9456244F81A8
S113443058856D817E8120E08B819C810E9469205A
S113444029960FB6F894DEBF0FBECDBFDF91CF9192
S11344501F910F91FF90EF90DF90089564E087EF34
S11344609FE00C94D62164E083ED9FE00C94D62168
S113447065E086EA9FE00C94D62164E082E89FE040
S11344800C94D621EF92FF920F93CF93DF93D091A8
S1134490A405DD2309F46BC085E00E943E1C8091D5
S11344A0A20520919006C82F2111CE7FD4FF26C0EB
S11344B09091A30591110DC090E0019663E070E026
S11344C00E940224C82F8093A2052223B9F0CE7F34
S11344D015C0892F90E024E0C29F800D911D112406
S11344E020E048EC50E060E070E08058994FDF91A4
S11344F0CF910F91FF90EF900C9469206EE180E0D2
S11345000E943C1181E09091A305911180E00E94EA
S113451006138091A205882331F0813041F460E1D3
S11345208CE299E107C060E18DE399E103C060E1A9
S11345308FE199E10E944B1B84E0C89F7001112414
S1134540C701855A994F7C01C0E0D0E00C2F0F5F62
S1134550F701EC0FFD1F46A150E025E06CE38C2F22
S11345608E5F0E94D21E2196C430D10579F7DF9167
S1134570CF910F91FF90EF900895FF920F931F93A7
S1134580CF93DF93CDB7DEB727970FB6F894DEBF8E
S11345900FBECDBF8091A40584FF07C080E00E94B8
S11345A03C1781E00E94081BCBC0837099F1809175
S11345B08E06882319F081E00E943C178091E00563
S11345C064E2882381F083E00E943C1188E990E052
S11345D00E941F1381E59AE10E94F51280E090E0A9
S11345E00E941F13ADC080E00E943C1188E990E056
S11345F00E941F1387E59AE10E94F51280E090E083
S11346000E941F1360E082E00E943C118CE098E15C
S11346100E94F5128091E005811192C064E582E068
S11346200E943C118091E20563E0882319F08AE43A
S11346309AE102C08DE49AE10E944B1B60E083E0A2
S11346400E943C118091E705882389F186EC98E16A
S11346500E94F51280E20E94BE128091E70587FF56
S113466003C08DE398E125C086E69FE00E94F51221
S11346708091E705982F9F709F3049F080FD0AC014
S113468081FD0BC082FF0CC087EB98E10BC083E671
S11346909FE008C081EC98E105C08BEB98E102C073
S11346A082EB98E10E94F5128CE59FE002C087E45A
S11346B09FE00E94F5126EE484E00E943C11809118
S11346C00A06AAE0FA2E6F2D0E94E2234AE08E0128
S11346D00F5F1F4FB80190E00E947324C8010E942D
S11346E0E9128EE20E94BE1280910A066F2D0E948A
S11346F0E2234AE0B801892F90E00E947324C801A4
S11347000E94E912F80101900020E9F7802F8E1B26
S11347108C5F0E943D1B4091D505542F550F550BBE
S11347200FEF27E06EE485E00E94D21E4091D7058A
S1134730542F550F550B27E06EE486E00E94D21EDD
S113474027960FB6F894DEBF0FBECDBFDF91CF9191
S11347501F910F91FF9008958091A405811104C0C9
S11347600E94CE108093A4058091A40587FF11C0F8
S11347708091910581110DC08091ED05823010F07A
S113478081E005C0813029F40E94661580E00E9412
S1134790081B8091A40582FF03C081E08093A405D7
S11347A00E9446208091A40584708093A4050895F6
S11347B080E00C94081B8091A40582608093A4057A
S11347C00C94AC23991B79E004C0991F961708F048
S11347D0961B881F7A95C9F780950895AA1BBB1B61
S11347E051E107C0AA1FBB1FA617B70710F0A61BED
S11347F0B70B881F991F5A95A9F780959095BC010E
S1134800CD01089597FB072E16F4009407D077FD89
S113481009D00E94EE2307FC05D03EF490958195C3
S11348209F4F0895709561957F4F0895A1E21A2EC8
S1134830AA1BBB1BFD010DC0AA1FBB1FEE1FFF1F40
S1134840A217B307E407F50720F0A21BB30BE40B90
S1134850F50B661F771F881F991F1A9469F76095D7
S11348607095809590959B01AC01BD01CF01089591
S11348700E944024332312F48A1B9B0B0C94512472
S1134880A29FB001B39FC001A39F700D811D11248D
S1134890911DB29F700D811D1124911D08950E94D8
S11348A04024B7FF0895821B930B0895FB01DC019C
S11348B002C005900D9241505040D8F70895FC0174
S11348C005900020E9F7809590958E0F9F1F08951D
S11348D0BB274A3031F4992322F4BDE290958195A7
S11348E09F4F0C947424BB27FB015527AA27880FDC
S11348F0991FAA1FA41710F0A41B83955051B9F750
S1134900A05DAA3308F0A95DA193009779F7B111CE
S1134910B1931192CB010C94BF24DC01CB01FC01B7
S1134920F999FECF06C0F2BDE1BDF89A319600B404
S11349300D9241505040B8F70895DC01A40FB51F03
S11349404150504048F0CB01840F951F2E910E9496
S1134950AE2441505040D0F70895262FF999FECF48
S113496092BD81BDF89A019700B4021639F01FBABE
S113497020BD0FB6F894FA9AF99A0FBE0895DC0197
S1134980FC01672F71917723E1F7329704C07C9182
S11349906D9370836291AE17BF07C8F30895F894BE
S10549A0FFCF43
S10D49A216211B000011FF1A00008B
S9030000FC
